{
  "contractName": "DummyContractForSophia",
  "abi": [
    {
      "inputs": [],
      "stateMutability": "nonpayable",
      "type": "constructor"
    },
    {
      "anonymous": false,
      "inputs": [
        {
          "indexed": true,
          "internalType": "bytes32",
          "name": "id",
          "type": "bytes32"
        }
      ],
      "name": "ChainlinkCancelled",
      "type": "event"
    },
    {
      "anonymous": false,
      "inputs": [
        {
          "indexed": true,
          "internalType": "bytes32",
          "name": "id",
          "type": "bytes32"
        }
      ],
      "name": "ChainlinkFulfilled",
      "type": "event"
    },
    {
      "anonymous": false,
      "inputs": [
        {
          "indexed": true,
          "internalType": "bytes32",
          "name": "id",
          "type": "bytes32"
        }
      ],
      "name": "ChainlinkRequested",
      "type": "event"
    },
    {
      "anonymous": false,
      "inputs": [
        {
          "indexed": false,
          "internalType": "bytes32",
          "name": "requestId_",
          "type": "bytes32"
        },
        {
          "indexed": false,
          "internalType": "uint256",
          "name": "aqi_",
          "type": "uint256"
        },
        {
          "indexed": false,
          "internalType": "uint256",
          "name": "no2_",
          "type": "uint256"
        },
        {
          "indexed": false,
          "internalType": "uint256",
          "name": "o3_",
          "type": "uint256"
        },
        {
          "indexed": false,
          "internalType": "uint256",
          "name": "pm10_",
          "type": "uint256"
        },
        {
          "indexed": false,
          "internalType": "uint256",
          "name": "pm2_5_",
          "type": "uint256"
        },
        {
          "indexed": true,
          "internalType": "address",
          "name": "requester_",
          "type": "address"
        }
      ],
      "name": "RequestMultipleFulfilled",
      "type": "event"
    },
    {
      "anonymous": false,
      "inputs": [
        {
          "indexed": false,
          "internalType": "bytes32",
          "name": "requestId_",
          "type": "bytes32"
        },
        {
          "indexed": false,
          "internalType": "string",
          "name": "lat_",
          "type": "string"
        },
        {
          "indexed": false,
          "internalType": "string",
          "name": "lon_",
          "type": "string"
        },
        {
          "indexed": true,
          "internalType": "address",
          "name": "requester_",
          "type": "address"
        }
      ],
      "name": "coordinatesAndAddress",
      "type": "event"
    },
    {
      "inputs": [
        {
          "internalType": "bytes32",
          "name": "",
          "type": "bytes32"
        }
      ],
      "name": "toAddresses",
      "outputs": [
        {
          "internalType": "address",
          "name": "",
          "type": "address"
        }
      ],
      "stateMutability": "view",
      "type": "function",
      "constant": true
    },
    {
      "inputs": [
        {
          "internalType": "bytes32",
          "name": "",
          "type": "bytes32"
        }
      ],
      "name": "toLat",
      "outputs": [
        {
          "internalType": "string",
          "name": "",
          "type": "string"
        }
      ],
      "stateMutability": "view",
      "type": "function",
      "constant": true
    },
    {
      "inputs": [
        {
          "internalType": "bytes32",
          "name": "",
          "type": "bytes32"
        }
      ],
      "name": "toLon",
      "outputs": [
        {
          "internalType": "string",
          "name": "",
          "type": "string"
        }
      ],
      "stateMutability": "view",
      "type": "function",
      "constant": true
    },
    {
      "inputs": [
        {
          "internalType": "string",
          "name": "_lat",
          "type": "string"
        },
        {
          "internalType": "string",
          "name": "_lon",
          "type": "string"
        }
      ],
      "name": "requestMultipleParameters",
      "outputs": [
        {
          "internalType": "bytes32",
          "name": "requestId",
          "type": "bytes32"
        }
      ],
      "stateMutability": "nonpayable",
      "type": "function"
    },
    {
      "inputs": [
        {
          "internalType": "bytes32",
          "name": "requestId",
          "type": "bytes32"
        },
        {
          "internalType": "uint256",
          "name": "aqi_response",
          "type": "uint256"
        },
        {
          "internalType": "uint256",
          "name": "no2_response",
          "type": "uint256"
        },
        {
          "internalType": "uint256",
          "name": "o3_response",
          "type": "uint256"
        },
        {
          "internalType": "uint256",
          "name": "pm10_response",
          "type": "uint256"
        },
        {
          "internalType": "uint256",
          "name": "pm2_5_response",
          "type": "uint256"
        }
      ],
      "name": "fulfillMultipleParameters",
      "outputs": [],
      "stateMutability": "nonpayable",
      "type": "function"
    }
  ],
  "bytecode": "0x608060405260016004553480156200001657600080fd5b5062000027620000b160201b60201c565b73d57018342b19bc74dd6f5fa8b73c934694b3ac10600660006101000a81548173ffffffffffffffffffffffffffffffffffffffff021916908373ffffffffffffffffffffffffffffffffffffffff1602179055507f6337656632653535663638653435623462393832313962386632383534313839600781905550600060088190555062000229565b6200014773c89bd4e1632d3a43cb03aaad5262cbe4038bc57173ffffffffffffffffffffffffffffffffffffffff166338cc48316040518163ffffffff1660e01b8152600401602060405180830381865afa15801562000115573d6000803e3d6000fd5b505050506040513d601f19601f820116820180604052508101906200013b9190620001f7565b6200014960201b60201c565b565b80600260006101000a81548173ffffffffffffffffffffffffffffffffffffffff021916908373ffffffffffffffffffffffffffffffffffffffff16021790555050565b600080fd5b600073ffffffffffffffffffffffffffffffffffffffff82169050919050565b6000620001bf8262000192565b9050919050565b620001d181620001b2565b8114620001dd57600080fd5b50565b600081519050620001f181620001c6565b92915050565b60006020828403121562000210576200020f6200018d565b5b60006200022084828501620001e0565b91505092915050565b611c3280620002396000396000f3fe608060405234801561001057600080fd5b50600436106100575760003560e01c80632097f08d1461005c5780635bb381601461008c5780639d150c63146100bc578063c0b05bd8146100d8578063fac3148414610108575b600080fd5b61007660048036038101906100719190610fc1565b610138565b6040516100839190611087565b60405180910390f35b6100a660048036038101906100a19190610fc1565b6101d8565b6040516100b39190611087565b60405180910390f35b6100d660048036038101906100d191906110df565b610278565b005b6100f260048036038101906100ed91906112a1565b6104ba565b6040516100ff9190611328565b60405180910390f35b610122600480360381019061011d9190610fc1565b610641565b60405161012f9190611384565b60405180910390f35b600a6020528060005260406000206000915090508054610157906113ce565b80601f0160208091040260200160405190810160405280929190818152602001828054610183906113ce565b80156101d05780601f106101a5576101008083540402835291602001916101d0565b820191906000526020600020905b8154815290600101906020018083116101b357829003601f168201915b505050505081565b600b60205280600052604060002060009150905080546101f7906113ce565b80601f0160208091040260200160405190810160405280929190818152602001828054610223906113ce565b80156102705780601f1061024557610100808354040283529160200191610270565b820191906000526020600020905b81548152906001019060200180831161025357829003601f168201915b505050505081565b856005600082815260200190815260200160002060009054906101000a900473ffffffffffffffffffffffffffffffffffffffff1673ffffffffffffffffffffffffffffffffffffffff163373ffffffffffffffffffffffffffffffffffffffff161461031a576040517f08c379a000000000000000000000000000000000000000000000000000000000815260040161031190611472565b60405180910390fd5b6005600082815260200190815260200160002060006101000a81549073ffffffffffffffffffffffffffffffffffffffff0219169055807f7cc135e0cebb02c3480ae5d74d377283180a2601f8f644edf7987b009316c63a60405160405180910390a26009600088815260200190815260200160002060009054906101000a900473ffffffffffffffffffffffffffffffffffffffff1673ffffffffffffffffffffffffffffffffffffffff167f66e53834ed3a3eeec84218d6fe78a9efd0f2d18555828035994dc57a3d739f43888888888888604051610400969594939291906114a1565b60405180910390a26009600088815260200190815260200160002060009054906101000a900473ffffffffffffffffffffffffffffffffffffffff1673ffffffffffffffffffffffffffffffffffffffff167f421681dac7f1b4fa98f9096857b68c0921c27916e535ad5121bd39f1eda5712288600a60008b8152602001908152602001600020600b60008c81526020019081526020016000206040516104a993929190611597565b60405180910390a250505050505050565b6000806104d160075430639d150c6360e01b610674565b905061051d6040518060400160405280600381526020017f6c6174000000000000000000000000000000000000000000000000000000000081525085836106a59092919063ffffffff16565b6105676040518060400160405280600381526020017f6c6f6e000000000000000000000000000000000000000000000000000000000081525084836106a59092919063ffffffff16565b610596600660009054906101000a900473ffffffffffffffffffffffffffffffffffffffff16826008546106d8565b9150336009600084815260200190815260200160002060006101000a81548173ffffffffffffffffffffffffffffffffffffffff021916908373ffffffffffffffffffffffffffffffffffffffff16021790555083600a60008481526020019081526020016000209080519060200190610611929190610e4d565b5082600b60008481526020019081526020016000209080519060200190610639929190610e4d565b505092915050565b60096020528060005260406000206000915054906101000a900473ffffffffffffffffffffffffffffffffffffffff1681565b61067c610ed3565b610684610ed3565b61069b858585846106f8909392919063ffffffff16565b9150509392505050565b6106bc8284608001516107a890919063ffffffff16565b6106d38184608001516107a890919063ffffffff16565b505050565b60006106ef8484846001634042994660e01b6107cd565b90509392505050565b610700610ed3565b6107108560800151610100610a26565b508385600001818152505082856020019073ffffffffffffffffffffffffffffffffffffffff16908173ffffffffffffffffffffffffffffffffffffffff16815250508185604001907bffffffffffffffffffffffffffffffffffffffffffffffffffffffff191690817bffffffffffffffffffffffffffffffffffffffffffffffffffffffff191681525050849050949350505050565b6107b58260038351610a90565b6107c88183610bd590919063ffffffff16565b505050565b6000306004546040516020016107e4929190611695565b604051602081830303815290604052805190602001209050600454856060018181525050856005600083815260200190815260200160002060006101000a81548173ffffffffffffffffffffffffffffffffffffffff021916908373ffffffffffffffffffffffffffffffffffffffff160217905550807fb5e6e01e79f91267dc17b4e6314d5d4d03593d2ceee0fbb452b750bd70ea5af960405160405180910390a2600082600080886000015189602001518a604001518b606001518a8d60800151600001516040516024016108c2989796959493929190611751565b604051602081830303815290604052907bffffffffffffffffffffffffffffffffffffffffffffffffffffffff19166020820180517bffffffffffffffffffffffffffffffffffffffffffffffffffffffff83818316178352505050509050600260009054906101000a900473ffffffffffffffffffffffffffffffffffffffff1673ffffffffffffffffffffffffffffffffffffffff16634000aea08887846040518463ffffffff1660e01b8152600401610980939291906117d6565b6020604051808303816000875af115801561099f573d6000803e3d6000fd5b505050506040513d601f19601f820116820180604052508101906109c3919061184c565b610a02576040517f08c379a00000000000000000000000000000000000000000000000000000000081526004016109f9906118eb565b60405180910390fd5b600160046000828254610a15919061193a565b925050819055505095945050505050565b610a2e610f40565b6000602083610a3d91906119bf565b14610a6957602082610a4f91906119bf565b6020610a5b91906119f0565b82610a66919061193a565b91505b81836020018181525050604051808452600081528281016020016040525082905092915050565b60178111610abd57610ab78160058460ff16901b60ff161784610bf790919063ffffffff16565b50610bd0565b60ff8111610aff57610ae2601860058460ff16901b1784610bf790919063ffffffff16565b50610af981600185610c179092919063ffffffff16565b50610bcf565b61ffff8111610b4257610b25601960058460ff16901b1784610bf790919063ffffffff16565b50610b3c81600285610c179092919063ffffffff16565b50610bce565b63ffffffff8111610b8757610b6a601a60058460ff16901b1784610bf790919063ffffffff16565b50610b8181600485610c179092919063ffffffff16565b50610bcd565b67ffffffffffffffff8111610bcc57610bb3601b60058460ff16901b1784610bf790919063ffffffff16565b50610bca81600885610c179092919063ffffffff16565b505b5b5b5b5b505050565b610bdd610f40565b610bef83846000015151848551610c39565b905092915050565b610bff610f40565b610c0f8384600001515184610d28565b905092915050565b610c1f610f40565b610c30848560000151518585610d7f565b90509392505050565b610c41610f40565b8251821115610c4f57600080fd5b84602001518285610c60919061193a565b1115610c9557610c94856002610c8588602001518887610c80919061193a565b610e0d565b610c8f9190611a24565b610e29565b5b600080865180518760208301019350808887011115610cb45787860182525b60208701925050505b60208410610cfb5780518252602082610cd6919061193a565b9150602081610ce5919061193a565b9050602084610cf491906119f0565b9350610cbd565b60006001856020036101000a03905080198251168184511681811785525050508692505050949350505050565b610d30610f40565b83602001518310610d5657610d558460028660200151610d509190611a24565b610e29565b5b8351805160208583010184815381861415610d72576001820183525b5050508390509392505050565b610d87610f40565b84602001518483610d98919061193a565b1115610dc057610dbf8560028685610db0919061193a565b610dba9190611a24565b610e29565b5b6000600183610100610dd29190611bb1565b610ddc91906119f0565b90508551838682010185831982511617815281518588011115610dff5784870182525b505085915050949350505050565b600081831115610e1f57829050610e23565b8190505b92915050565b600082600001519050610e3c8383610a26565b50610e478382610bd5565b50505050565b828054610e59906113ce565b90600052602060002090601f016020900481019282610e7b5760008555610ec2565b82601f10610e9457805160ff1916838001178555610ec2565b82800160010185558215610ec2579182015b82811115610ec1578251825591602001919060010190610ea6565b5b509050610ecf9190610f5a565b5090565b6040518060a0016040528060008019168152602001600073ffffffffffffffffffffffffffffffffffffffff16815260200160007bffffffffffffffffffffffffffffffffffffffffffffffffffffffff1916815260200160008152602001610f3a610f40565b81525090565b604051806040016040528060608152602001600081525090565b5b80821115610f73576000816000905550600101610f5b565b5090565b6000604051905090565b600080fd5b600080fd5b6000819050919050565b610f9e81610f8b565b8114610fa957600080fd5b50565b600081359050610fbb81610f95565b92915050565b600060208284031215610fd757610fd6610f81565b5b6000610fe584828501610fac565b91505092915050565b600081519050919050565b600082825260208201905092915050565b60005b8381101561102857808201518184015260208101905061100d565b83811115611037576000848401525b50505050565b6000601f19601f8301169050919050565b600061105982610fee565b6110638185610ff9565b935061107381856020860161100a565b61107c8161103d565b840191505092915050565b600060208201905081810360008301526110a1818461104e565b905092915050565b6000819050919050565b6110bc816110a9565b81146110c757600080fd5b50565b6000813590506110d9816110b3565b92915050565b60008060008060008060c087890312156110fc576110fb610f81565b5b600061110a89828a01610fac565b965050602061111b89828a016110ca565b955050604061112c89828a016110ca565b945050606061113d89828a016110ca565b935050608061114e89828a016110ca565b92505060a061115f89828a016110ca565b9150509295509295509295565b600080fd5b600080fd5b7f4e487b7100000000000000000000000000000000000000000000000000000000600052604160045260246000fd5b6111ae8261103d565b810181811067ffffffffffffffff821117156111cd576111cc611176565b5b80604052505050565b60006111e0610f77565b90506111ec82826111a5565b919050565b600067ffffffffffffffff82111561120c5761120b611176565b5b6112158261103d565b9050602081019050919050565b82818337600083830152505050565b600061124461123f846111f1565b6111d6565b9050828152602081018484840111156112605761125f611171565b5b61126b848285611222565b509392505050565b600082601f8301126112885761128761116c565b5b8135611298848260208601611231565b91505092915050565b600080604083850312156112b8576112b7610f81565b5b600083013567ffffffffffffffff8111156112d6576112d5610f86565b5b6112e285828601611273565b925050602083013567ffffffffffffffff81111561130357611302610f86565b5b61130f85828601611273565b9150509250929050565b61132281610f8b565b82525050565b600060208201905061133d6000830184611319565b92915050565b600073ffffffffffffffffffffffffffffffffffffffff82169050919050565b600061136e82611343565b9050919050565b61137e81611363565b82525050565b60006020820190506113996000830184611375565b92915050565b7f4e487b7100000000000000000000000000000000000000000000000000000000600052602260045260246000fd5b600060028204905060018216806113e657607f821691505b602082108114156113fa576113f961139f565b5b50919050565b7f536f75726365206d75737420626520746865206f7261636c65206f662074686560008201527f2072657175657374000000000000000000000000000000000000000000000000602082015250565b600061145c602883610ff9565b915061146782611400565b604082019050919050565b6000602082019050818103600083015261148b8161144f565b9050919050565b61149b816110a9565b82525050565b600060c0820190506114b66000830189611319565b6114c36020830188611492565b6114d06040830187611492565b6114dd6060830186611492565b6114ea6080830185611492565b6114f760a0830184611492565b979650505050505050565b60008190508160005260206000209050919050565b60008154611524816113ce565b61152e8186610ff9565b94506001821660008114611549576001811461155b5761158e565b60ff198316865260208601935061158e565b61156485611502565b60005b8381101561158657815481890152600182019150602081019050611567565b808801955050505b50505092915050565b60006060820190506115ac6000830186611319565b81810360208301526115be8185611517565b905081810360408301526115d28184611517565b9050949350505050565b6000819050919050565b60006116016115fc6115f784611343565b6115dc565b611343565b9050919050565b6000611613826115e6565b9050919050565b600061162582611608565b9050919050565b60008160601b9050919050565b60006116448261162c565b9050919050565b600061165682611639565b9050919050565b61166e6116698261161a565b61164b565b82525050565b6000819050919050565b61168f61168a826110a9565b611674565b82525050565b60006116a1828561165d565b6014820191506116b1828461167e565b6020820191508190509392505050565b60007fffffffff0000000000000000000000000000000000000000000000000000000082169050919050565b6116f6816116c1565b82525050565b600081519050919050565b600082825260208201905092915050565b6000611723826116fc565b61172d8185611707565b935061173d81856020860161100a565b6117468161103d565b840191505092915050565b600061010082019050611767600083018b611375565b611774602083018a611492565b6117816040830189611319565b61178e6060830188611375565b61179b60808301876116ed565b6117a860a0830186611492565b6117b560c0830185611492565b81810360e08301526117c78184611718565b90509998505050505050505050565b60006060820190506117eb6000830186611375565b6117f86020830185611492565b818103604083015261180a8184611718565b9050949350505050565b60008115159050919050565b61182981611814565b811461183457600080fd5b50565b60008151905061184681611820565b92915050565b60006020828403121561186257611861610f81565b5b600061187084828501611837565b91505092915050565b7f756e61626c6520746f207472616e73666572416e6443616c6c20746f206f726160008201527f636c650000000000000000000000000000000000000000000000000000000000602082015250565b60006118d5602383610ff9565b91506118e082611879565b604082019050919050565b60006020820190508181036000830152611904816118c8565b9050919050565b7f4e487b7100000000000000000000000000000000000000000000000000000000600052601160045260246000fd5b6000611945826110a9565b9150611950836110a9565b9250827fffffffffffffffffffffffffffffffffffffffffffffffffffffffffffffffff038211156119855761198461190b565b5b828201905092915050565b7f4e487b7100000000000000000000000000000000000000000000000000000000600052601260045260246000fd5b60006119ca826110a9565b91506119d5836110a9565b9250826119e5576119e4611990565b5b828206905092915050565b60006119fb826110a9565b9150611a06836110a9565b925082821015611a1957611a1861190b565b5b828203905092915050565b6000611a2f826110a9565b9150611a3a836110a9565b9250817fffffffffffffffffffffffffffffffffffffffffffffffffffffffffffffffff0483118215151615611a7357611a7261190b565b5b828202905092915050565b60008160011c9050919050565b6000808291508390505b6001851115611ad557808604811115611ab157611ab061190b565b5b6001851615611ac05780820291505b8081029050611ace85611a7e565b9450611a95565b94509492505050565b600082611aee5760019050611baa565b81611afc5760009050611baa565b8160018114611b125760028114611b1c57611b4b565b6001915050611baa565b60ff841115611b2e57611b2d61190b565b5b8360020a915084821115611b4557611b4461190b565b5b50611baa565b5060208310610133831016604e8410600b8410161715611b805782820a905083811115611b7b57611b7a61190b565b5b611baa565b611b8d8484846001611a8b565b92509050818404811115611ba457611ba361190b565b5b81810290505b9392505050565b6000611bbc826110a9565b9150611bc7836110a9565b9250611bf47fffffffffffffffffffffffffffffffffffffffffffffffffffffffffffffffff8484611ade565b90509291505056fea2646970667358221220fc5031a93f98d8aa360613ef10b8f18c40fa08ff2de8d8a6609c54dcba6fb64e64736f6c634300080a0033",
  "immutableReferences": {},
  "source": "// SPDX-License-Identifier: MIT\npragma solidity ^0.8.7;\n\nimport \"@chainlink/contracts/src/v0.8/ChainlinkClient.sol\";\n\ncontract DummyContractForSophia is ChainlinkClient {\n    using Chainlink for Chainlink.Request;\n\n    address private oracle;\n    bytes32 private jobId;\n    uint256 private fee;\n\n    mapping(bytes32 => address) public toAddresses;\n    mapping(bytes32 => string) public toLat;\n    mapping(bytes32 => string) public toLon;\n\n    constructor() {\n        setPublicChainlinkToken();\n        oracle = 0xd57018342B19Bc74dD6f5Fa8B73c934694b3aC10;\n        jobId = \"c7ef2e55f68e45b4b98219b8f2854189\";\n        fee = 0;\n    }\n\n    function requestMultipleParameters(string memory _lat, string memory _lon)\n        public\n        returns (bytes32 requestId)\n    {\n        Chainlink.Request memory req = buildChainlinkRequest(\n            jobId,\n            address(this),\n            this.fulfillMultipleParameters.selector\n        );\n\n        req.add(\"lat\", _lat);\n        req.add(\"lon\", _lon);\n\n        // Sends the request\n        requestId = sendChainlinkRequestTo(oracle, req, fee);\n        toAddresses[requestId] = msg.sender;\n        toLat[requestId] = _lat;\n        toLon[requestId] = _lon;\n    }\n\n    event RequestMultipleFulfilled(\n        bytes32 requestId_,\n        uint256 aqi_,\n        uint256 no2_,\n        uint256 o3_,\n        uint256 pm10_,\n        uint256 pm2_5_,\n        address indexed requester_\n    );\n\n    event coordinatesAndAddress(\n        bytes32 requestId_,\n        string lat_,\n        string lon_,\n        address indexed requester_\n    );\n\n    function fulfillMultipleParameters(\n        bytes32 requestId,\n        uint256 aqi_response,\n        uint256 no2_response,\n        uint256 o3_response,\n        uint256 pm10_response,\n        uint256 pm2_5_response\n    ) public recordChainlinkFulfillment(requestId) {\n        emit RequestMultipleFulfilled(\n            requestId,\n            aqi_response,\n            no2_response,\n            o3_response,\n            pm10_response,\n            pm2_5_response,\n            toAddresses[requestId]\n        );\n        emit coordinatesAndAddress(\n            requestId,\n            toLat[requestId],\n            toLon[requestId],\n            toAddresses[requestId]\n        );\n    }\n\n    // function withdrawLink() external {} - Implement a withdraw function to avoid locking your LINK in the contract\n}\n",
  "sourcePath": "/Users/np/Desktop/Chainlink hackathon/ChainlinkProject/net.zero/netZeroReactApp/contracts/DummyContractForSophia.sol",
  "compiler": {
    "name": "solc",
    "version": "0.8.10+commit.fc410830.Emscripten.clang"
  },
  "schemaVersion": "3.4.3",
  "updatedAt": "2021-11-22T20:32:00.797Z",
  "networkType": "ethereum",
  "devdoc": {
    "kind": "dev",
    "methods": {},
    "version": 1
  },
  "userdoc": {
    "kind": "user",
    "methods": {},
    "version": 1
  }
}