{
  "contractName": "DummyContractForSophia",
  "abi": [
    {
      "inputs": [],
      "stateMutability": "nonpayable",
      "type": "constructor"
    },
    {
      "anonymous": false,
      "inputs": [
        {
          "indexed": true,
          "internalType": "bytes32",
          "name": "id",
          "type": "bytes32"
        }
      ],
      "name": "ChainlinkCancelled",
      "type": "event"
    },
    {
      "anonymous": false,
      "inputs": [
        {
          "indexed": true,
          "internalType": "bytes32",
          "name": "id",
          "type": "bytes32"
        }
      ],
      "name": "ChainlinkFulfilled",
      "type": "event"
    },
    {
      "anonymous": false,
      "inputs": [
        {
          "indexed": true,
          "internalType": "bytes32",
          "name": "id",
          "type": "bytes32"
        }
      ],
      "name": "ChainlinkRequested",
      "type": "event"
    },
    {
      "anonymous": false,
      "inputs": [
        {
          "indexed": false,
          "internalType": "uint256",
          "name": "aqi",
          "type": "uint256"
        }
      ],
      "name": "requestFulfilled",
      "type": "event"
    },
    {
      "inputs": [],
      "name": "aqiValue",
      "outputs": [
        {
          "internalType": "uint256",
          "name": "",
          "type": "uint256"
        }
      ],
      "stateMutability": "view",
      "type": "function",
      "constant": true
    },
    {
      "inputs": [],
      "name": "interval",
      "outputs": [
        {
          "internalType": "uint256",
          "name": "",
          "type": "uint256"
        }
      ],
      "stateMutability": "view",
      "type": "function",
      "constant": true
    },
    {
      "inputs": [],
      "name": "lastTimeStamp",
      "outputs": [
        {
          "internalType": "uint256",
          "name": "",
          "type": "uint256"
        }
      ],
      "stateMutability": "view",
      "type": "function",
      "constant": true
    },
    {
      "inputs": [
        {
          "internalType": "string",
          "name": "_lat",
          "type": "string"
        },
        {
          "internalType": "string",
          "name": "_lon",
          "type": "string"
        }
      ],
      "name": "requestVolumeData",
      "outputs": [
        {
          "internalType": "bytes32",
          "name": "requestId",
          "type": "bytes32"
        }
      ],
      "stateMutability": "nonpayable",
      "type": "function"
    },
    {
      "inputs": [
        {
          "internalType": "bytes32",
          "name": "_requestId",
          "type": "bytes32"
        },
        {
          "internalType": "uint256",
          "name": "_aqiValue",
          "type": "uint256"
        }
      ],
      "name": "fulfill",
      "outputs": [],
      "stateMutability": "nonpayable",
      "type": "function"
    }
  ],
  "bytecode": "0x60a060405260016004553480156200001657600080fd5b5062000027620000c160201b60201c565b735221e61ccb134af38a7360c23a29a2345ceb3027600760006101000a81548173ffffffffffffffffffffffffffffffffffffffff021916908373ffffffffffffffffffffffffffffffffffffffff1602179055507f37306538633062353266646334356563616262666338313665373361626131306008819055506000600981905550603c6080818152505042600a8190555062000249565b6200016773c89bd4e1632d3a43cb03aaad5262cbe4038bc57173ffffffffffffffffffffffffffffffffffffffff166338cc48316040518163ffffffff1660e01b815260040160206040518083038186803b1580156200012057600080fd5b505afa15801562000135573d6000803e3d6000fd5b505050506040513d601f19601f820116820180604052508101906200015b919062000217565b6200016960201b60201c565b565b80600260006101000a81548173ffffffffffffffffffffffffffffffffffffffff021916908373ffffffffffffffffffffffffffffffffffffffff16021790555050565b600080fd5b600073ffffffffffffffffffffffffffffffffffffffff82169050919050565b6000620001df82620001b2565b9050919050565b620001f181620001d2565b8114620001fd57600080fd5b50565b6000815190506200021181620001e6565b92915050565b60006020828403121562000230576200022f620001ad565b5b6000620002408482850162000200565b91505092915050565b60805161160d62000265600039600061033d015261160d6000f3fe608060405234801561001057600080fd5b50600436106100575760003560e01c806321d178c81461005c5780633f3b3b271461008c5780634357855e146100aa5780634b8e2249146100c6578063947a36fb146100e4575b600080fd5b61007660048036038101906100719190610d28565b610102565b6040516100839190610db9565b60405180910390f35b6100946101e7565b6040516100a19190610ded565b60405180910390f35b6100c460048036038101906100bf9190610e60565b6101ed565b005b6100ce610335565b6040516100db9190610ded565b60405180910390f35b6100ec61033b565b6040516100f99190610ded565b60405180910390f35b60008061011960085430634357855e60e01b61035f565b90506101656040518060400160405280600381526020017f6c6174000000000000000000000000000000000000000000000000000000000081525085836103909092919063ffffffff16565b6101af6040518060400160405280600381526020017f6c6f6e000000000000000000000000000000000000000000000000000000000081525084836103909092919063ffffffff16565b6101de600760009054906101000a900473ffffffffffffffffffffffffffffffffffffffff16826009546103c3565b91505092915050565b600a5481565b816005600082815260200190815260200160002060009054906101000a900473ffffffffffffffffffffffffffffffffffffffff1673ffffffffffffffffffffffffffffffffffffffff163373ffffffffffffffffffffffffffffffffffffffff161461028f576040517f08c379a000000000000000000000000000000000000000000000000000000000815260040161028690610f23565b60405180910390fd5b6005600082815260200190815260200160002060006101000a81549073ffffffffffffffffffffffffffffffffffffffff0219169055807f7cc135e0cebb02c3480ae5d74d377283180a2601f8f644edf7987b009316c63a60405160405180910390a2816006819055507f68064c6475f0bb72fea36ccec3f5ccc3fdb694ec6e15fec1712443871f36f4b2826040516103289190610ded565b60405180910390a1505050565b60065481565b7f000000000000000000000000000000000000000000000000000000000000000081565b610367610b47565b61036f610b47565b610386858585846103e3909392919063ffffffff16565b9150509392505050565b6103a782846080015161049390919063ffffffff16565b6103be81846080015161049390919063ffffffff16565b505050565b60006103da8484846001634042994660e01b6104b8565b90509392505050565b6103eb610b47565b6103fb8560800151610100610720565b508385600001818152505082856020019073ffffffffffffffffffffffffffffffffffffffff16908173ffffffffffffffffffffffffffffffffffffffff16815250508185604001907bffffffffffffffffffffffffffffffffffffffffffffffffffffffff191690817bffffffffffffffffffffffffffffffffffffffffffffffffffffffff191681525050849050949350505050565b6104a0826003835161078a565b6104b381836108cf90919063ffffffff16565b505050565b6000306004546040516020016104cf92919061101c565b604051602081830303815290604052805190602001209050600454856060018181525050856005600083815260200190815260200160002060006101000a81548173ffffffffffffffffffffffffffffffffffffffff021916908373ffffffffffffffffffffffffffffffffffffffff160217905550807fb5e6e01e79f91267dc17b4e6314d5d4d03593d2ceee0fbb452b750bd70ea5af960405160405180910390a2600082600080886000015189602001518a604001518b606001518a8d60800151600001516040516024016105ad98979695949392919061112c565b604051602081830303815290604052907bffffffffffffffffffffffffffffffffffffffffffffffffffffffff19166020820180517bffffffffffffffffffffffffffffffffffffffffffffffffffffffff83818316178352505050509050600260009054906101000a900473ffffffffffffffffffffffffffffffffffffffff1673ffffffffffffffffffffffffffffffffffffffff16634000aea08887846040518463ffffffff1660e01b815260040161066b939291906111b1565b602060405180830381600087803b15801561068557600080fd5b505af1158015610699573d6000803e3d6000fd5b505050506040513d601f19601f820116820180604052508101906106bd9190611227565b6106fc576040517f08c379a00000000000000000000000000000000000000000000000000000000081526004016106f3906112c6565b60405180910390fd5b60016004600082825461070f9190611315565b925050819055505095945050505050565b610728610bb4565b6000602083610737919061139a565b1461076357602082610749919061139a565b602061075591906113cb565b826107609190611315565b91505b81836020018181525050604051808452600081528281016020016040525082905092915050565b601781116107b7576107b18160058460ff16901b60ff1617846108f190919063ffffffff16565b506108ca565b60ff81116107f9576107dc601860058460ff16901b17846108f190919063ffffffff16565b506107f3816001856109119092919063ffffffff16565b506108c9565b61ffff811161083c5761081f601960058460ff16901b17846108f190919063ffffffff16565b50610836816002856109119092919063ffffffff16565b506108c8565b63ffffffff811161088157610864601a60058460ff16901b17846108f190919063ffffffff16565b5061087b816004856109119092919063ffffffff16565b506108c7565b67ffffffffffffffff81116108c6576108ad601b60058460ff16901b17846108f190919063ffffffff16565b506108c4816008856109119092919063ffffffff16565b505b5b5b5b5b505050565b6108d7610bb4565b6108e983846000015151848551610933565b905092915050565b6108f9610bb4565b6109098384600001515184610a22565b905092915050565b610919610bb4565b61092a848560000151518585610a79565b90509392505050565b61093b610bb4565b825182111561094957600080fd5b8460200151828561095a9190611315565b111561098f5761098e85600261097f8860200151888761097a9190611315565b610b07565b61098991906113ff565b610b23565b5b6000808651805187602083010193508088870111156109ae5787860182525b60208701925050505b602084106109f557805182526020826109d09190611315565b91506020816109df9190611315565b90506020846109ee91906113cb565b93506109b7565b60006001856020036101000a03905080198251168184511681811785525050508692505050949350505050565b610a2a610bb4565b83602001518310610a5057610a4f8460028660200151610a4a91906113ff565b610b23565b5b8351805160208583010184815381861415610a6c576001820183525b5050508390509392505050565b610a81610bb4565b84602001518483610a929190611315565b1115610aba57610ab98560028685610aaa9190611315565b610ab491906113ff565b610b23565b5b6000600183610100610acc919061158c565b610ad691906113cb565b90508551838682010185831982511617815281518588011115610af95784870182525b505085915050949350505050565b600081831115610b1957829050610b1d565b8190505b92915050565b600082600001519050610b368383610720565b50610b4183826108cf565b50505050565b6040518060a0016040528060008019168152602001600073ffffffffffffffffffffffffffffffffffffffff16815260200160007bffffffffffffffffffffffffffffffffffffffffffffffffffffffff1916815260200160008152602001610bae610bb4565b81525090565b604051806040016040528060608152602001600081525090565b6000604051905090565b600080fd5b600080fd5b600080fd5b600080fd5b6000601f19601f8301169050919050565b7f4e487b7100000000000000000000000000000000000000000000000000000000600052604160045260246000fd5b610c3582610bec565b810181811067ffffffffffffffff82111715610c5457610c53610bfd565b5b80604052505050565b6000610c67610bce565b9050610c738282610c2c565b919050565b600067ffffffffffffffff821115610c9357610c92610bfd565b5b610c9c82610bec565b9050602081019050919050565b82818337600083830152505050565b6000610ccb610cc684610c78565b610c5d565b905082815260208101848484011115610ce757610ce6610be7565b5b610cf2848285610ca9565b509392505050565b600082601f830112610d0f57610d0e610be2565b5b8135610d1f848260208601610cb8565b91505092915050565b60008060408385031215610d3f57610d3e610bd8565b5b600083013567ffffffffffffffff811115610d5d57610d5c610bdd565b5b610d6985828601610cfa565b925050602083013567ffffffffffffffff811115610d8a57610d89610bdd565b5b610d9685828601610cfa565b9150509250929050565b6000819050919050565b610db381610da0565b82525050565b6000602082019050610dce6000830184610daa565b92915050565b6000819050919050565b610de781610dd4565b82525050565b6000602082019050610e026000830184610dde565b92915050565b610e1181610da0565b8114610e1c57600080fd5b50565b600081359050610e2e81610e08565b92915050565b610e3d81610dd4565b8114610e4857600080fd5b50565b600081359050610e5a81610e34565b92915050565b60008060408385031215610e7757610e76610bd8565b5b6000610e8585828601610e1f565b9250506020610e9685828601610e4b565b9150509250929050565b600082825260208201905092915050565b7f536f75726365206d75737420626520746865206f7261636c65206f662074686560008201527f2072657175657374000000000000000000000000000000000000000000000000602082015250565b6000610f0d602883610ea0565b9150610f1882610eb1565b604082019050919050565b60006020820190508181036000830152610f3c81610f00565b9050919050565b600073ffffffffffffffffffffffffffffffffffffffff82169050919050565b6000819050919050565b6000610f88610f83610f7e84610f43565b610f63565b610f43565b9050919050565b6000610f9a82610f6d565b9050919050565b6000610fac82610f8f565b9050919050565b60008160601b9050919050565b6000610fcb82610fb3565b9050919050565b6000610fdd82610fc0565b9050919050565b610ff5610ff082610fa1565b610fd2565b82525050565b6000819050919050565b61101661101182610dd4565b610ffb565b82525050565b60006110288285610fe4565b6014820191506110388284611005565b6020820191508190509392505050565b600061105382610f43565b9050919050565b61106381611048565b82525050565b60007fffffffff0000000000000000000000000000000000000000000000000000000082169050919050565b61109e81611069565b82525050565b600081519050919050565b600082825260208201905092915050565b60005b838110156110de5780820151818401526020810190506110c3565b838111156110ed576000848401525b50505050565b60006110fe826110a4565b61110881856110af565b93506111188185602086016110c0565b61112181610bec565b840191505092915050565b600061010082019050611142600083018b61105a565b61114f602083018a610dde565b61115c6040830189610daa565b611169606083018861105a565b6111766080830187611095565b61118360a0830186610dde565b61119060c0830185610dde565b81810360e08301526111a281846110f3565b90509998505050505050505050565b60006060820190506111c6600083018661105a565b6111d36020830185610dde565b81810360408301526111e581846110f3565b9050949350505050565b60008115159050919050565b611204816111ef565b811461120f57600080fd5b50565b600081519050611221816111fb565b92915050565b60006020828403121561123d5761123c610bd8565b5b600061124b84828501611212565b91505092915050565b7f756e61626c6520746f207472616e73666572416e6443616c6c20746f206f726160008201527f636c650000000000000000000000000000000000000000000000000000000000602082015250565b60006112b0602383610ea0565b91506112bb82611254565b604082019050919050565b600060208201905081810360008301526112df816112a3565b9050919050565b7f4e487b7100000000000000000000000000000000000000000000000000000000600052601160045260246000fd5b600061132082610dd4565b915061132b83610dd4565b9250827fffffffffffffffffffffffffffffffffffffffffffffffffffffffffffffffff038211156113605761135f6112e6565b5b828201905092915050565b7f4e487b7100000000000000000000000000000000000000000000000000000000600052601260045260246000fd5b60006113a582610dd4565b91506113b083610dd4565b9250826113c0576113bf61136b565b5b828206905092915050565b60006113d682610dd4565b91506113e183610dd4565b9250828210156113f4576113f36112e6565b5b828203905092915050565b600061140a82610dd4565b915061141583610dd4565b9250817fffffffffffffffffffffffffffffffffffffffffffffffffffffffffffffffff048311821515161561144e5761144d6112e6565b5b828202905092915050565b60008160011c9050919050565b6000808291508390505b60018511156114b05780860481111561148c5761148b6112e6565b5b600185161561149b5780820291505b80810290506114a985611459565b9450611470565b94509492505050565b6000826114c95760019050611585565b816114d75760009050611585565b81600181146114ed57600281146114f757611526565b6001915050611585565b60ff841115611509576115086112e6565b5b8360020a9150848211156115205761151f6112e6565b5b50611585565b5060208310610133831016604e8410600b841016171561155b5782820a905083811115611556576115556112e6565b5b611585565b6115688484846001611466565b9250905081840481111561157f5761157e6112e6565b5b81810290505b9392505050565b600061159782610dd4565b91506115a283610dd4565b92506115cf7fffffffffffffffffffffffffffffffffffffffffffffffffffffffffffffffff84846114b9565b90509291505056fea26469706673582212208c6cf70485344f718cb22d0d26672789fad31b53c2f43bab45eb226a789bb53664736f6c63430008090033",
  "immutableReferences": {
    "2112": [
      {
        "length": 32,
        "start": 829
      }
    ]
  },
  "source": "// SPDX-License-Identifier: MIT\npragma solidity ^0.8.7;\n\nimport \"@chainlink/contracts/src/v0.8/ChainlinkClient.sol\";\n\ncontract DummyContractForSophia is ChainlinkClient {\n    using Chainlink for Chainlink.Request;\n\n    uint256 public aqiValue;\n\n    address private oracle;\n    bytes32 private jobId;\n    uint256 private fee;\n\n    uint256 public immutable interval;\n    uint256 public lastTimeStamp;\n\n    event requestFulfilled(uint256 aqi);\n\n    constructor() {\n        setPublicChainlinkToken();\n        oracle = 0x5221E61ccb134Af38a7360c23a29A2345cEb3027;\n        jobId = \"70e8c0b52fdc45ecabbfc816e73aba10\";\n        fee = 0; // (Varies by network and job) //zero in this instance\n        interval = 1 minutes;\n        lastTimeStamp = block.timestamp;\n    }\n\n    function requestVolumeData(string memory _lat, string memory _lon)\n        public\n        returns (bytes32 requestId)\n    {\n        Chainlink.Request memory request = buildChainlinkRequest(\n            jobId,\n            address(this),\n            this.fulfill.selector\n        );\n\n        request.add(\"lat\", _lat);\n        request.add(\"lon\", _lon);\n\n        // Sends the request\n        return sendChainlinkRequestTo(oracle, request, fee);\n    }\n\n    /**\n     * Receive the response in the form of uint256\n     */\n    function fulfill(bytes32 _requestId, uint256 _aqiValue)\n        public\n        recordChainlinkFulfillment(_requestId)\n    {\n        aqiValue = _aqiValue;\n        emit requestFulfilled(_aqiValue);\n    }\n\n    // function withdrawLink() external {} - Implement a withdraw function to avoid locking your LINK in the contract\n}\n",
  "sourcePath": "/Users/np/Desktop/Chainlink hackathon/netZeroReactApp/contracts/DummyContractForSophia.sol",
  "compiler": {
    "name": "solc",
    "version": "0.8.9+commit.e5eed63a.Emscripten.clang"
  },
  "schemaVersion": "3.4.3",
  "updatedAt": "2021-11-05T23:10:04.437Z",
  "networkType": "ethereum",
  "devdoc": {
    "kind": "dev",
    "methods": {},
    "version": 1
  },
  "userdoc": {
    "kind": "user",
    "methods": {
      "fulfill(bytes32,uint256)": {
        "notice": "Receive the response in the form of uint256"
      }
    },
    "version": 1
  }
}