{
  "contractName": "DummyContractForSophia",
  "abi": [
    {
      "inputs": [],
      "stateMutability": "nonpayable",
      "type": "constructor"
    },
    {
      "anonymous": false,
      "inputs": [
        {
          "indexed": true,
          "internalType": "bytes32",
          "name": "id",
          "type": "bytes32"
        }
      ],
      "name": "ChainlinkCancelled",
      "type": "event"
    },
    {
      "anonymous": false,
      "inputs": [
        {
          "indexed": true,
          "internalType": "bytes32",
          "name": "id",
          "type": "bytes32"
        }
      ],
      "name": "ChainlinkFulfilled",
      "type": "event"
    },
    {
      "anonymous": false,
      "inputs": [
        {
          "indexed": true,
          "internalType": "bytes32",
          "name": "id",
          "type": "bytes32"
        }
      ],
      "name": "ChainlinkRequested",
      "type": "event"
    },
    {
      "anonymous": false,
      "inputs": [
        {
          "indexed": true,
          "internalType": "address",
          "name": "to",
          "type": "address"
        },
        {
          "indexed": false,
          "internalType": "uint256",
          "name": "aqi",
          "type": "uint256"
        }
      ],
      "name": "requestFulfilled",
      "type": "event"
    },
    {
      "inputs": [],
      "name": "interval",
      "outputs": [
        {
          "internalType": "uint256",
          "name": "",
          "type": "uint256"
        }
      ],
      "stateMutability": "view",
      "type": "function",
      "constant": true
    },
    {
      "inputs": [],
      "name": "lastTimeStamp",
      "outputs": [
        {
          "internalType": "uint256",
          "name": "",
          "type": "uint256"
        }
      ],
      "stateMutability": "view",
      "type": "function",
      "constant": true
    },
    {
      "inputs": [
        {
          "internalType": "bytes32",
          "name": "",
          "type": "bytes32"
        }
      ],
      "name": "toAddresses",
      "outputs": [
        {
          "internalType": "address",
          "name": "",
          "type": "address"
        }
      ],
      "stateMutability": "view",
      "type": "function",
      "constant": true
    },
    {
      "inputs": [
        {
          "internalType": "string",
          "name": "_lat",
          "type": "string"
        },
        {
          "internalType": "string",
          "name": "_lon",
          "type": "string"
        }
      ],
      "name": "requestVolumeData",
      "outputs": [
        {
          "internalType": "bytes32",
          "name": "requestId",
          "type": "bytes32"
        }
      ],
      "stateMutability": "nonpayable",
      "type": "function"
    },
    {
      "inputs": [
        {
          "internalType": "bytes32",
          "name": "_requestId",
          "type": "bytes32"
        },
        {
          "internalType": "uint256",
          "name": "_aqiValue",
          "type": "uint256"
        }
      ],
      "name": "fulfill",
      "outputs": [],
      "stateMutability": "nonpayable",
      "type": "function"
    }
  ],
  "bytecode": "0x60a060405260016004553480156200001657600080fd5b5062000027620000c160201b60201c565b735221e61ccb134af38a7360c23a29a2345ceb3027600660006101000a81548173ffffffffffffffffffffffffffffffffffffffff021916908373ffffffffffffffffffffffffffffffffffffffff1602179055507f37306538633062353266646334356563616262666338313665373361626131306007819055506000600881905550603c608081815250504260098190555062000239565b6200015773c89bd4e1632d3a43cb03aaad5262cbe4038bc57173ffffffffffffffffffffffffffffffffffffffff166338cc48316040518163ffffffff1660e01b8152600401602060405180830381865afa15801562000125573d6000803e3d6000fd5b505050506040513d601f19601f820116820180604052508101906200014b919062000207565b6200015960201b60201c565b565b80600260006101000a81548173ffffffffffffffffffffffffffffffffffffffff021916908373ffffffffffffffffffffffffffffffffffffffff16021790555050565b600080fd5b600073ffffffffffffffffffffffffffffffffffffffff82169050919050565b6000620001cf82620001a2565b9050919050565b620001e181620001c2565b8114620001ed57600080fd5b50565b6000815190506200020181620001d6565b92915050565b60006020828403121562000220576200021f6200019d565b5b60006200023084828501620001f0565b91505092915050565b60805161171a6200025560003960006103de015261171a6000f3fe608060405234801561001057600080fd5b50600436106100575760003560e01c806321d178c81461005c5780633f3b3b271461008c5780634357855e146100aa578063947a36fb146100c6578063fac31484146100e4575b600080fd5b61007660048036038101906100719190610ded565b610114565b6040516100839190610e7e565b60405180910390f35b61009461024b565b6040516100a19190610eb2565b60405180910390f35b6100c460048036038101906100bf9190610f25565b610251565b005b6100ce6103dc565b6040516100db9190610eb2565b60405180910390f35b6100fe60048036038101906100f99190610f65565b610400565b60405161010b9190610fd3565b60405180910390f35b60008061012b60075430634357855e60e01b610433565b90506101776040518060400160405280600381526020017f6c6174000000000000000000000000000000000000000000000000000000000081525085836104649092919063ffffffff16565b6101c16040518060400160405280600381526020017f6c6f6e000000000000000000000000000000000000000000000000000000000081525084836104649092919063ffffffff16565b6101f0600660009054906101000a900473ffffffffffffffffffffffffffffffffffffffff1682600854610497565b915033600a600084815260200190815260200160002060006101000a81548173ffffffffffffffffffffffffffffffffffffffff021916908373ffffffffffffffffffffffffffffffffffffffff1602179055505092915050565b60095481565b816005600082815260200190815260200160002060009054906101000a900473ffffffffffffffffffffffffffffffffffffffff1673ffffffffffffffffffffffffffffffffffffffff163373ffffffffffffffffffffffffffffffffffffffff16146102f3576040517f08c379a00000000000000000000000000000000000000000000000000000000081526004016102ea90611071565b60405180910390fd5b6005600082815260200190815260200160002060006101000a81549073ffffffffffffffffffffffffffffffffffffffff0219169055807f7cc135e0cebb02c3480ae5d74d377283180a2601f8f644edf7987b009316c63a60405160405180910390a2600a600084815260200190815260200160002060009054906101000a900473ffffffffffffffffffffffffffffffffffffffff1673ffffffffffffffffffffffffffffffffffffffff167fec2089e1186431f931911c861e69026e8706575fa71f99bc3eecbecb86da60ab836040516103cf9190610eb2565b60405180910390a2505050565b7f000000000000000000000000000000000000000000000000000000000000000081565b600a6020528060005260406000206000915054906101000a900473ffffffffffffffffffffffffffffffffffffffff1681565b61043b610c0c565b610443610c0c565b61045a858585846104b7909392919063ffffffff16565b9150509392505050565b61047b82846080015161056790919063ffffffff16565b61049281846080015161056790919063ffffffff16565b505050565b60006104ae8484846001634042994660e01b61058c565b90509392505050565b6104bf610c0c565b6104cf85608001516101006107e5565b508385600001818152505082856020019073ffffffffffffffffffffffffffffffffffffffff16908173ffffffffffffffffffffffffffffffffffffffff16815250508185604001907bffffffffffffffffffffffffffffffffffffffffffffffffffffffff191690817bffffffffffffffffffffffffffffffffffffffffffffffffffffffff191681525050849050949350505050565b610574826003835161084f565b610587818361099490919063ffffffff16565b505050565b6000306004546040516020016105a392919061114a565b604051602081830303815290604052805190602001209050600454856060018181525050856005600083815260200190815260200160002060006101000a81548173ffffffffffffffffffffffffffffffffffffffff021916908373ffffffffffffffffffffffffffffffffffffffff160217905550807fb5e6e01e79f91267dc17b4e6314d5d4d03593d2ceee0fbb452b750bd70ea5af960405160405180910390a2600082600080886000015189602001518a604001518b606001518a8d6080015160000151604051602401610681989796959493929190611239565b604051602081830303815290604052907bffffffffffffffffffffffffffffffffffffffffffffffffffffffff19166020820180517bffffffffffffffffffffffffffffffffffffffffffffffffffffffff83818316178352505050509050600260009054906101000a900473ffffffffffffffffffffffffffffffffffffffff1673ffffffffffffffffffffffffffffffffffffffff16634000aea08887846040518463ffffffff1660e01b815260040161073f939291906112be565b6020604051808303816000875af115801561075e573d6000803e3d6000fd5b505050506040513d601f19601f820116820180604052508101906107829190611334565b6107c1576040517f08c379a00000000000000000000000000000000000000000000000000000000081526004016107b8906113d3565b60405180910390fd5b6001600460008282546107d49190611422565b925050819055505095945050505050565b6107ed610c79565b60006020836107fc91906114a7565b146108285760208261080e91906114a7565b602061081a91906114d8565b826108259190611422565b91505b81836020018181525050604051808452600081528281016020016040525082905092915050565b6017811161087c576108768160058460ff16901b60ff1617846109b690919063ffffffff16565b5061098f565b60ff81116108be576108a1601860058460ff16901b17846109b690919063ffffffff16565b506108b8816001856109d69092919063ffffffff16565b5061098e565b61ffff8111610901576108e4601960058460ff16901b17846109b690919063ffffffff16565b506108fb816002856109d69092919063ffffffff16565b5061098d565b63ffffffff811161094657610929601a60058460ff16901b17846109b690919063ffffffff16565b50610940816004856109d69092919063ffffffff16565b5061098c565b67ffffffffffffffff811161098b57610972601b60058460ff16901b17846109b690919063ffffffff16565b50610989816008856109d69092919063ffffffff16565b505b5b5b5b5b505050565b61099c610c79565b6109ae838460000151518485516109f8565b905092915050565b6109be610c79565b6109ce8384600001515184610ae7565b905092915050565b6109de610c79565b6109ef848560000151518585610b3e565b90509392505050565b610a00610c79565b8251821115610a0e57600080fd5b84602001518285610a1f9190611422565b1115610a5457610a53856002610a4488602001518887610a3f9190611422565b610bcc565b610a4e919061150c565b610be8565b5b600080865180518760208301019350808887011115610a735787860182525b60208701925050505b60208410610aba5780518252602082610a959190611422565b9150602081610aa49190611422565b9050602084610ab391906114d8565b9350610a7c565b60006001856020036101000a03905080198251168184511681811785525050508692505050949350505050565b610aef610c79565b83602001518310610b1557610b148460028660200151610b0f919061150c565b610be8565b5b8351805160208583010184815381861415610b31576001820183525b5050508390509392505050565b610b46610c79565b84602001518483610b579190611422565b1115610b7f57610b7e8560028685610b6f9190611422565b610b79919061150c565b610be8565b5b6000600183610100610b919190611699565b610b9b91906114d8565b90508551838682010185831982511617815281518588011115610bbe5784870182525b505085915050949350505050565b600081831115610bde57829050610be2565b8190505b92915050565b600082600001519050610bfb83836107e5565b50610c068382610994565b50505050565b6040518060a0016040528060008019168152602001600073ffffffffffffffffffffffffffffffffffffffff16815260200160007bffffffffffffffffffffffffffffffffffffffffffffffffffffffff1916815260200160008152602001610c73610c79565b81525090565b604051806040016040528060608152602001600081525090565b6000604051905090565b600080fd5b600080fd5b600080fd5b600080fd5b6000601f19601f8301169050919050565b7f4e487b7100000000000000000000000000000000000000000000000000000000600052604160045260246000fd5b610cfa82610cb1565b810181811067ffffffffffffffff82111715610d1957610d18610cc2565b5b80604052505050565b6000610d2c610c93565b9050610d388282610cf1565b919050565b600067ffffffffffffffff821115610d5857610d57610cc2565b5b610d6182610cb1565b9050602081019050919050565b82818337600083830152505050565b6000610d90610d8b84610d3d565b610d22565b905082815260208101848484011115610dac57610dab610cac565b5b610db7848285610d6e565b509392505050565b600082601f830112610dd457610dd3610ca7565b5b8135610de4848260208601610d7d565b91505092915050565b60008060408385031215610e0457610e03610c9d565b5b600083013567ffffffffffffffff811115610e2257610e21610ca2565b5b610e2e85828601610dbf565b925050602083013567ffffffffffffffff811115610e4f57610e4e610ca2565b5b610e5b85828601610dbf565b9150509250929050565b6000819050919050565b610e7881610e65565b82525050565b6000602082019050610e936000830184610e6f565b92915050565b6000819050919050565b610eac81610e99565b82525050565b6000602082019050610ec76000830184610ea3565b92915050565b610ed681610e65565b8114610ee157600080fd5b50565b600081359050610ef381610ecd565b92915050565b610f0281610e99565b8114610f0d57600080fd5b50565b600081359050610f1f81610ef9565b92915050565b60008060408385031215610f3c57610f3b610c9d565b5b6000610f4a85828601610ee4565b9250506020610f5b85828601610f10565b9150509250929050565b600060208284031215610f7b57610f7a610c9d565b5b6000610f8984828501610ee4565b91505092915050565b600073ffffffffffffffffffffffffffffffffffffffff82169050919050565b6000610fbd82610f92565b9050919050565b610fcd81610fb2565b82525050565b6000602082019050610fe86000830184610fc4565b92915050565b600082825260208201905092915050565b7f536f75726365206d75737420626520746865206f7261636c65206f662074686560008201527f2072657175657374000000000000000000000000000000000000000000000000602082015250565b600061105b602883610fee565b915061106682610fff565b604082019050919050565b6000602082019050818103600083015261108a8161104e565b9050919050565b6000819050919050565b60006110b66110b16110ac84610f92565b611091565b610f92565b9050919050565b60006110c88261109b565b9050919050565b60006110da826110bd565b9050919050565b60008160601b9050919050565b60006110f9826110e1565b9050919050565b600061110b826110ee565b9050919050565b61112361111e826110cf565b611100565b82525050565b6000819050919050565b61114461113f82610e99565b611129565b82525050565b60006111568285611112565b6014820191506111668284611133565b6020820191508190509392505050565b60007fffffffff0000000000000000000000000000000000000000000000000000000082169050919050565b6111ab81611176565b82525050565b600081519050919050565b600082825260208201905092915050565b60005b838110156111eb5780820151818401526020810190506111d0565b838111156111fa576000848401525b50505050565b600061120b826111b1565b61121581856111bc565b93506112258185602086016111cd565b61122e81610cb1565b840191505092915050565b60006101008201905061124f600083018b610fc4565b61125c602083018a610ea3565b6112696040830189610e6f565b6112766060830188610fc4565b61128360808301876111a2565b61129060a0830186610ea3565b61129d60c0830185610ea3565b81810360e08301526112af8184611200565b90509998505050505050505050565b60006060820190506112d36000830186610fc4565b6112e06020830185610ea3565b81810360408301526112f28184611200565b9050949350505050565b60008115159050919050565b611311816112fc565b811461131c57600080fd5b50565b60008151905061132e81611308565b92915050565b60006020828403121561134a57611349610c9d565b5b60006113588482850161131f565b91505092915050565b7f756e61626c6520746f207472616e73666572416e6443616c6c20746f206f726160008201527f636c650000000000000000000000000000000000000000000000000000000000602082015250565b60006113bd602383610fee565b91506113c882611361565b604082019050919050565b600060208201905081810360008301526113ec816113b0565b9050919050565b7f4e487b7100000000000000000000000000000000000000000000000000000000600052601160045260246000fd5b600061142d82610e99565b915061143883610e99565b9250827fffffffffffffffffffffffffffffffffffffffffffffffffffffffffffffffff0382111561146d5761146c6113f3565b5b828201905092915050565b7f4e487b7100000000000000000000000000000000000000000000000000000000600052601260045260246000fd5b60006114b282610e99565b91506114bd83610e99565b9250826114cd576114cc611478565b5b828206905092915050565b60006114e382610e99565b91506114ee83610e99565b925082821015611501576115006113f3565b5b828203905092915050565b600061151782610e99565b915061152283610e99565b9250817fffffffffffffffffffffffffffffffffffffffffffffffffffffffffffffffff048311821515161561155b5761155a6113f3565b5b828202905092915050565b60008160011c9050919050565b6000808291508390505b60018511156115bd57808604811115611599576115986113f3565b5b60018516156115a85780820291505b80810290506115b685611566565b945061157d565b94509492505050565b6000826115d65760019050611692565b816115e45760009050611692565b81600181146115fa576002811461160457611633565b6001915050611692565b60ff841115611616576116156113f3565b5b8360020a91508482111561162d5761162c6113f3565b5b50611692565b5060208310610133831016604e8410600b84101617156116685782820a905083811115611663576116626113f3565b5b611692565b6116758484846001611573565b9250905081840481111561168c5761168b6113f3565b5b81810290505b9392505050565b60006116a482610e99565b91506116af83610e99565b92506116dc7fffffffffffffffffffffffffffffffffffffffffffffffffffffffffffffffff84846115c6565b90509291505056fea2646970667358221220e15a641dfa4a9cadb61808f569e3f858df5a4e91cb094edc58a046f0374e424f64736f6c634300080a0033",
  "immutableReferences": {
    "2110": [
      {
        "length": 32,
        "start": 990
      }
    ]
  },
  "source": "// SPDX-License-Identifier: MIT\npragma solidity ^0.8.7;\n\nimport \"@chainlink/contracts/src/v0.8/ChainlinkClient.sol\";\n\ncontract DummyContractForSophia is ChainlinkClient {\n    using Chainlink for Chainlink.Request;\n\n    address private oracle;\n    bytes32 private jobId;\n    uint256 private fee;\n\n    uint256 public immutable interval;\n    uint256 public lastTimeStamp;\n\n    mapping(bytes32 => address) public toAddresses;\n\n    event requestFulfilled(address indexed to, uint256 aqi);\n\n    constructor() {\n        setPublicChainlinkToken();\n        oracle = 0x5221E61ccb134Af38a7360c23a29A2345cEb3027;\n        jobId = \"70e8c0b52fdc45ecabbfc816e73aba10\";\n        fee = 0; // (Varies by network and job) //zero in this instance\n        interval = 1 minutes;\n        lastTimeStamp = block.timestamp;\n    }\n\n    function requestVolumeData(string memory _lat, string memory _lon)\n        public\n        returns (bytes32 requestId)\n    {\n        Chainlink.Request memory request = buildChainlinkRequest(\n            jobId,\n            address(this),\n            this.fulfill.selector\n        );\n\n        request.add(\"lat\", _lat);\n        request.add(\"lon\", _lon);\n\n        // Sends the request\n        requestId = sendChainlinkRequestTo(oracle, request, fee);\n        toAddresses[requestId] = msg.sender;\n    }\n\n    /**\n     * Receive the response in the form of uint256\n     */\n    function fulfill(bytes32 _requestId, uint256 _aqiValue)\n        public\n        recordChainlinkFulfillment(_requestId)\n    {\n        emit requestFulfilled(toAddresses[_requestId], _aqiValue);\n    }\n\n    // function withdrawLink() external {} - Implement a withdraw function to avoid locking your LINK in the contract\n}\n",
  "sourcePath": "/Users/np/Desktop/Chainlink hackathon/ChainlinkProject/net.zero/netZeroReactApp/contracts/DummyContractForSophia.sol",
  "compiler": {
    "name": "solc",
    "version": "0.8.10+commit.fc410830.Emscripten.clang"
  },
  "schemaVersion": "3.4.3",
  "updatedAt": "2021-11-14T23:35:13.367Z",
  "networkType": "ethereum",
  "devdoc": {
    "kind": "dev",
    "methods": {},
    "version": 1
  },
  "userdoc": {
    "kind": "user",
    "methods": {
      "fulfill(bytes32,uint256)": {
        "notice": "Receive the response in the form of uint256"
      }
    },
    "version": 1
  }
}