{
  "contractName": "PollutionDataContract",
  "abi": [
    {
      "inputs": [],
      "stateMutability": "nonpayable",
      "type": "constructor"
    },
    {
      "anonymous": false,
      "inputs": [
        {
          "indexed": true,
          "internalType": "bytes32",
          "name": "id",
          "type": "bytes32"
        }
      ],
      "name": "ChainlinkCancelled",
      "type": "event"
    },
    {
      "anonymous": false,
      "inputs": [
        {
          "indexed": true,
          "internalType": "bytes32",
          "name": "id",
          "type": "bytes32"
        }
      ],
      "name": "ChainlinkFulfilled",
      "type": "event"
    },
    {
      "anonymous": false,
      "inputs": [
        {
          "indexed": true,
          "internalType": "bytes32",
          "name": "id",
          "type": "bytes32"
        }
      ],
      "name": "ChainlinkRequested",
      "type": "event"
    },
    {
      "anonymous": false,
      "inputs": [
        {
          "indexed": false,
          "internalType": "bytes32",
          "name": "requestId_",
          "type": "bytes32"
        },
        {
          "indexed": false,
          "internalType": "uint256",
          "name": "aqi_",
          "type": "uint256"
        },
        {
          "indexed": false,
          "internalType": "uint256",
          "name": "no2_",
          "type": "uint256"
        },
        {
          "indexed": false,
          "internalType": "uint256",
          "name": "o3_",
          "type": "uint256"
        },
        {
          "indexed": false,
          "internalType": "uint256",
          "name": "pm10_",
          "type": "uint256"
        },
        {
          "indexed": false,
          "internalType": "uint256",
          "name": "pm2_5_",
          "type": "uint256"
        },
        {
          "indexed": true,
          "internalType": "address",
          "name": "requester_",
          "type": "address"
        }
      ],
      "name": "RequestMultipleFulfilled",
      "type": "event"
    },
    {
      "anonymous": false,
      "inputs": [
        {
          "indexed": false,
          "internalType": "bytes32",
          "name": "requestId_",
          "type": "bytes32"
        },
        {
          "indexed": false,
          "internalType": "string",
          "name": "lat_",
          "type": "string"
        },
        {
          "indexed": false,
          "internalType": "string",
          "name": "lon_",
          "type": "string"
        },
        {
          "indexed": false,
          "internalType": "uint256",
          "name": "timestamp_",
          "type": "uint256"
        },
        {
          "indexed": true,
          "internalType": "address",
          "name": "requester_",
          "type": "address"
        }
      ],
      "name": "coordinatesAndAddress",
      "type": "event"
    },
    {
      "inputs": [
        {
          "internalType": "bytes32",
          "name": "",
          "type": "bytes32"
        }
      ],
      "name": "toAddresses",
      "outputs": [
        {
          "internalType": "address",
          "name": "",
          "type": "address"
        }
      ],
      "stateMutability": "view",
      "type": "function"
    },
    {
      "inputs": [
        {
          "internalType": "bytes32",
          "name": "",
          "type": "bytes32"
        }
      ],
      "name": "toLat",
      "outputs": [
        {
          "internalType": "string",
          "name": "",
          "type": "string"
        }
      ],
      "stateMutability": "view",
      "type": "function"
    },
    {
      "inputs": [
        {
          "internalType": "bytes32",
          "name": "",
          "type": "bytes32"
        }
      ],
      "name": "toLon",
      "outputs": [
        {
          "internalType": "string",
          "name": "",
          "type": "string"
        }
      ],
      "stateMutability": "view",
      "type": "function"
    },
    {
      "inputs": [
        {
          "internalType": "string",
          "name": "_lat",
          "type": "string"
        },
        {
          "internalType": "string",
          "name": "_lon",
          "type": "string"
        }
      ],
      "name": "requestMultipleParameters",
      "outputs": [
        {
          "internalType": "bytes32",
          "name": "requestId",
          "type": "bytes32"
        }
      ],
      "stateMutability": "nonpayable",
      "type": "function"
    },
    {
      "inputs": [
        {
          "internalType": "bytes32",
          "name": "requestId",
          "type": "bytes32"
        },
        {
          "internalType": "uint256",
          "name": "aqi_response",
          "type": "uint256"
        },
        {
          "internalType": "uint256",
          "name": "no2_response",
          "type": "uint256"
        },
        {
          "internalType": "uint256",
          "name": "o3_response",
          "type": "uint256"
        },
        {
          "internalType": "uint256",
          "name": "pm10_response",
          "type": "uint256"
        },
        {
          "internalType": "uint256",
          "name": "pm2_5_response",
          "type": "uint256"
        }
      ],
      "name": "fulfillMultipleParameters",
      "outputs": [],
      "stateMutability": "nonpayable",
      "type": "function"
    }
  ],
  "bytecode": "0x608060405260016004553480156200001657600080fd5b5062000027620000b160201b60201c565b73d57018342b19bc74dd6f5fa8b73c934694b3ac10600660006101000a81548173ffffffffffffffffffffffffffffffffffffffff021916908373ffffffffffffffffffffffffffffffffffffffff1602179055507f6337656632653535663638653435623462393832313962386632383534313839600781905550600060088190555062000229565b6200014773c89bd4e1632d3a43cb03aaad5262cbe4038bc57173ffffffffffffffffffffffffffffffffffffffff166338cc48316040518163ffffffff1660e01b8152600401602060405180830381865afa15801562000115573d6000803e3d6000fd5b505050506040513d601f19601f820116820180604052508101906200013b9190620001f7565b6200014960201b60201c565b565b80600260006101000a81548173ffffffffffffffffffffffffffffffffffffffff021916908373ffffffffffffffffffffffffffffffffffffffff16021790555050565b600080fd5b600073ffffffffffffffffffffffffffffffffffffffff82169050919050565b6000620001bf8262000192565b9050919050565b620001d181620001b2565b8114620001dd57600080fd5b50565b600081519050620001f181620001c6565b92915050565b60006020828403121562000210576200020f6200018d565b5b60006200022084828501620001e0565b91505092915050565b611c4280620002396000396000f3fe608060405234801561001057600080fd5b50600436106100575760003560e01c80632097f08d1461005c5780635bb381601461008c5780639d150c63146100bc578063c0b05bd8146100d8578063fac3148414610108575b600080fd5b61007660048036038101906100719190610fc3565b610138565b6040516100839190611089565b60405180910390f35b6100a660048036038101906100a19190610fc3565b6101d8565b6040516100b39190611089565b60405180910390f35b6100d660048036038101906100d191906110e1565b610278565b005b6100f260048036038101906100ed91906112a3565b6104bc565b6040516100ff919061132a565b60405180910390f35b610122600480360381019061011d9190610fc3565b610643565b60405161012f9190611386565b60405180910390f35b600a6020528060005260406000206000915090508054610157906113d0565b80601f0160208091040260200160405190810160405280929190818152602001828054610183906113d0565b80156101d05780601f106101a5576101008083540402835291602001916101d0565b820191906000526020600020905b8154815290600101906020018083116101b357829003601f168201915b505050505081565b600b60205280600052604060002060009150905080546101f7906113d0565b80601f0160208091040260200160405190810160405280929190818152602001828054610223906113d0565b80156102705780601f1061024557610100808354040283529160200191610270565b820191906000526020600020905b81548152906001019060200180831161025357829003601f168201915b505050505081565b856005600082815260200190815260200160002060009054906101000a900473ffffffffffffffffffffffffffffffffffffffff1673ffffffffffffffffffffffffffffffffffffffff163373ffffffffffffffffffffffffffffffffffffffff161461031a576040517f08c379a000000000000000000000000000000000000000000000000000000000815260040161031190611474565b60405180910390fd5b6005600082815260200190815260200160002060006101000a81549073ffffffffffffffffffffffffffffffffffffffff0219169055807f7cc135e0cebb02c3480ae5d74d377283180a2601f8f644edf7987b009316c63a60405160405180910390a26009600088815260200190815260200160002060009054906101000a900473ffffffffffffffffffffffffffffffffffffffff1673ffffffffffffffffffffffffffffffffffffffff167f66e53834ed3a3eeec84218d6fe78a9efd0f2d18555828035994dc57a3d739f43888888888888604051610400969594939291906114a3565b60405180910390a26009600088815260200190815260200160002060009054906101000a900473ffffffffffffffffffffffffffffffffffffffff1673ffffffffffffffffffffffffffffffffffffffff167fb297200a913cab14c9a8135b79e90805060b649857c9fc4d6c360e7b026dbcec88600a60008b8152602001908152602001600020600b60008c8152602001908152602001600020426040516104ab9493929190611599565b60405180910390a250505050505050565b6000806104d360075430639d150c6360e01b610676565b905061051f6040518060400160405280600381526020017f6c6174000000000000000000000000000000000000000000000000000000000081525085836106a79092919063ffffffff16565b6105696040518060400160405280600381526020017f6c6f6e000000000000000000000000000000000000000000000000000000000081525084836106a79092919063ffffffff16565b610598600660009054906101000a900473ffffffffffffffffffffffffffffffffffffffff16826008546106da565b9150336009600084815260200190815260200160002060006101000a81548173ffffffffffffffffffffffffffffffffffffffff021916908373ffffffffffffffffffffffffffffffffffffffff16021790555083600a60008481526020019081526020016000209080519060200190610613929190610e4f565b5082600b6000848152602001908152602001600020908051906020019061063b929190610e4f565b505092915050565b60096020528060005260406000206000915054906101000a900473ffffffffffffffffffffffffffffffffffffffff1681565b61067e610ed5565b610686610ed5565b61069d858585846106fa909392919063ffffffff16565b9150509392505050565b6106be8284608001516107aa90919063ffffffff16565b6106d58184608001516107aa90919063ffffffff16565b505050565b60006106f18484846001634042994660e01b6107cf565b90509392505050565b610702610ed5565b6107128560800151610100610a28565b508385600001818152505082856020019073ffffffffffffffffffffffffffffffffffffffff16908173ffffffffffffffffffffffffffffffffffffffff16815250508185604001907bffffffffffffffffffffffffffffffffffffffffffffffffffffffff191690817bffffffffffffffffffffffffffffffffffffffffffffffffffffffff191681525050849050949350505050565b6107b78260038351610a92565b6107ca8183610bd790919063ffffffff16565b505050565b6000306004546040516020016107e69291906116a5565b604051602081830303815290604052805190602001209050600454856060018181525050856005600083815260200190815260200160002060006101000a81548173ffffffffffffffffffffffffffffffffffffffff021916908373ffffffffffffffffffffffffffffffffffffffff160217905550807fb5e6e01e79f91267dc17b4e6314d5d4d03593d2ceee0fbb452b750bd70ea5af960405160405180910390a2600082600080886000015189602001518a604001518b606001518a8d60800151600001516040516024016108c4989796959493929190611761565b604051602081830303815290604052907bffffffffffffffffffffffffffffffffffffffffffffffffffffffff19166020820180517bffffffffffffffffffffffffffffffffffffffffffffffffffffffff83818316178352505050509050600260009054906101000a900473ffffffffffffffffffffffffffffffffffffffff1673ffffffffffffffffffffffffffffffffffffffff16634000aea08887846040518463ffffffff1660e01b8152600401610982939291906117e6565b6020604051808303816000875af11580156109a1573d6000803e3d6000fd5b505050506040513d601f19601f820116820180604052508101906109c5919061185c565b610a04576040517f08c379a00000000000000000000000000000000000000000000000000000000081526004016109fb906118fb565b60405180910390fd5b600160046000828254610a17919061194a565b925050819055505095945050505050565b610a30610f42565b6000602083610a3f91906119cf565b14610a6b57602082610a5191906119cf565b6020610a5d9190611a00565b82610a68919061194a565b91505b81836020018181525050604051808452600081528281016020016040525082905092915050565b60178111610abf57610ab98160058460ff16901b60ff161784610bf990919063ffffffff16565b50610bd2565b60ff8111610b0157610ae4601860058460ff16901b1784610bf990919063ffffffff16565b50610afb81600185610c199092919063ffffffff16565b50610bd1565b61ffff8111610b4457610b27601960058460ff16901b1784610bf990919063ffffffff16565b50610b3e81600285610c199092919063ffffffff16565b50610bd0565b63ffffffff8111610b8957610b6c601a60058460ff16901b1784610bf990919063ffffffff16565b50610b8381600485610c199092919063ffffffff16565b50610bcf565b67ffffffffffffffff8111610bce57610bb5601b60058460ff16901b1784610bf990919063ffffffff16565b50610bcc81600885610c199092919063ffffffff16565b505b5b5b5b5b505050565b610bdf610f42565b610bf183846000015151848551610c3b565b905092915050565b610c01610f42565b610c118384600001515184610d2a565b905092915050565b610c21610f42565b610c32848560000151518585610d81565b90509392505050565b610c43610f42565b8251821115610c5157600080fd5b84602001518285610c62919061194a565b1115610c9757610c96856002610c8788602001518887610c82919061194a565b610e0f565b610c919190611a34565b610e2b565b5b600080865180518760208301019350808887011115610cb65787860182525b60208701925050505b60208410610cfd5780518252602082610cd8919061194a565b9150602081610ce7919061194a565b9050602084610cf69190611a00565b9350610cbf565b60006001856020036101000a03905080198251168184511681811785525050508692505050949350505050565b610d32610f42565b83602001518310610d5857610d578460028660200151610d529190611a34565b610e2b565b5b8351805160208583010184815381861415610d74576001820183525b5050508390509392505050565b610d89610f42565b84602001518483610d9a919061194a565b1115610dc257610dc18560028685610db2919061194a565b610dbc9190611a34565b610e2b565b5b6000600183610100610dd49190611bc1565b610dde9190611a00565b90508551838682010185831982511617815281518588011115610e015784870182525b505085915050949350505050565b600081831115610e2157829050610e25565b8190505b92915050565b600082600001519050610e3e8383610a28565b50610e498382610bd7565b50505050565b828054610e5b906113d0565b90600052602060002090601f016020900481019282610e7d5760008555610ec4565b82601f10610e9657805160ff1916838001178555610ec4565b82800160010185558215610ec4579182015b82811115610ec3578251825591602001919060010190610ea8565b5b509050610ed19190610f5c565b5090565b6040518060a0016040528060008019168152602001600073ffffffffffffffffffffffffffffffffffffffff16815260200160007bffffffffffffffffffffffffffffffffffffffffffffffffffffffff1916815260200160008152602001610f3c610f42565b81525090565b604051806040016040528060608152602001600081525090565b5b80821115610f75576000816000905550600101610f5d565b5090565b6000604051905090565b600080fd5b600080fd5b6000819050919050565b610fa081610f8d565b8114610fab57600080fd5b50565b600081359050610fbd81610f97565b92915050565b600060208284031215610fd957610fd8610f83565b5b6000610fe784828501610fae565b91505092915050565b600081519050919050565b600082825260208201905092915050565b60005b8381101561102a57808201518184015260208101905061100f565b83811115611039576000848401525b50505050565b6000601f19601f8301169050919050565b600061105b82610ff0565b6110658185610ffb565b935061107581856020860161100c565b61107e8161103f565b840191505092915050565b600060208201905081810360008301526110a38184611050565b905092915050565b6000819050919050565b6110be816110ab565b81146110c957600080fd5b50565b6000813590506110db816110b5565b92915050565b60008060008060008060c087890312156110fe576110fd610f83565b5b600061110c89828a01610fae565b965050602061111d89828a016110cc565b955050604061112e89828a016110cc565b945050606061113f89828a016110cc565b935050608061115089828a016110cc565b92505060a061116189828a016110cc565b9150509295509295509295565b600080fd5b600080fd5b7f4e487b7100000000000000000000000000000000000000000000000000000000600052604160045260246000fd5b6111b08261103f565b810181811067ffffffffffffffff821117156111cf576111ce611178565b5b80604052505050565b60006111e2610f79565b90506111ee82826111a7565b919050565b600067ffffffffffffffff82111561120e5761120d611178565b5b6112178261103f565b9050602081019050919050565b82818337600083830152505050565b6000611246611241846111f3565b6111d8565b90508281526020810184848401111561126257611261611173565b5b61126d848285611224565b509392505050565b600082601f83011261128a5761128961116e565b5b813561129a848260208601611233565b91505092915050565b600080604083850312156112ba576112b9610f83565b5b600083013567ffffffffffffffff8111156112d8576112d7610f88565b5b6112e485828601611275565b925050602083013567ffffffffffffffff81111561130557611304610f88565b5b61131185828601611275565b9150509250929050565b61132481610f8d565b82525050565b600060208201905061133f600083018461131b565b92915050565b600073ffffffffffffffffffffffffffffffffffffffff82169050919050565b600061137082611345565b9050919050565b61138081611365565b82525050565b600060208201905061139b6000830184611377565b92915050565b7f4e487b7100000000000000000000000000000000000000000000000000000000600052602260045260246000fd5b600060028204905060018216806113e857607f821691505b602082108114156113fc576113fb6113a1565b5b50919050565b7f536f75726365206d75737420626520746865206f7261636c65206f662074686560008201527f2072657175657374000000000000000000000000000000000000000000000000602082015250565b600061145e602883610ffb565b915061146982611402565b604082019050919050565b6000602082019050818103600083015261148d81611451565b9050919050565b61149d816110ab565b82525050565b600060c0820190506114b8600083018961131b565b6114c56020830188611494565b6114d26040830187611494565b6114df6060830186611494565b6114ec6080830185611494565b6114f960a0830184611494565b979650505050505050565b60008190508160005260206000209050919050565b60008154611526816113d0565b6115308186610ffb565b9450600182166000811461154b576001811461155d57611590565b60ff1983168652602086019350611590565b61156685611504565b60005b8381101561158857815481890152600182019150602081019050611569565b808801955050505b50505092915050565b60006080820190506115ae600083018761131b565b81810360208301526115c08186611519565b905081810360408301526115d48185611519565b90506115e36060830184611494565b95945050505050565b6000819050919050565b600061161161160c61160784611345565b6115ec565b611345565b9050919050565b6000611623826115f6565b9050919050565b600061163582611618565b9050919050565b60008160601b9050919050565b60006116548261163c565b9050919050565b600061166682611649565b9050919050565b61167e6116798261162a565b61165b565b82525050565b6000819050919050565b61169f61169a826110ab565b611684565b82525050565b60006116b1828561166d565b6014820191506116c1828461168e565b6020820191508190509392505050565b60007fffffffff0000000000000000000000000000000000000000000000000000000082169050919050565b611706816116d1565b82525050565b600081519050919050565b600082825260208201905092915050565b60006117338261170c565b61173d8185611717565b935061174d81856020860161100c565b6117568161103f565b840191505092915050565b600061010082019050611777600083018b611377565b611784602083018a611494565b611791604083018961131b565b61179e6060830188611377565b6117ab60808301876116fd565b6117b860a0830186611494565b6117c560c0830185611494565b81810360e08301526117d78184611728565b90509998505050505050505050565b60006060820190506117fb6000830186611377565b6118086020830185611494565b818103604083015261181a8184611728565b9050949350505050565b60008115159050919050565b61183981611824565b811461184457600080fd5b50565b60008151905061185681611830565b92915050565b60006020828403121561187257611871610f83565b5b600061188084828501611847565b91505092915050565b7f756e61626c6520746f207472616e73666572416e6443616c6c20746f206f726160008201527f636c650000000000000000000000000000000000000000000000000000000000602082015250565b60006118e5602383610ffb565b91506118f082611889565b604082019050919050565b60006020820190508181036000830152611914816118d8565b9050919050565b7f4e487b7100000000000000000000000000000000000000000000000000000000600052601160045260246000fd5b6000611955826110ab565b9150611960836110ab565b9250827fffffffffffffffffffffffffffffffffffffffffffffffffffffffffffffffff038211156119955761199461191b565b5b828201905092915050565b7f4e487b7100000000000000000000000000000000000000000000000000000000600052601260045260246000fd5b60006119da826110ab565b91506119e5836110ab565b9250826119f5576119f46119a0565b5b828206905092915050565b6000611a0b826110ab565b9150611a16836110ab565b925082821015611a2957611a2861191b565b5b828203905092915050565b6000611a3f826110ab565b9150611a4a836110ab565b9250817fffffffffffffffffffffffffffffffffffffffffffffffffffffffffffffffff0483118215151615611a8357611a8261191b565b5b828202905092915050565b60008160011c9050919050565b6000808291508390505b6001851115611ae557808604811115611ac157611ac061191b565b5b6001851615611ad05780820291505b8081029050611ade85611a8e565b9450611aa5565b94509492505050565b600082611afe5760019050611bba565b81611b0c5760009050611bba565b8160018114611b225760028114611b2c57611b5b565b6001915050611bba565b60ff841115611b3e57611b3d61191b565b5b8360020a915084821115611b5557611b5461191b565b5b50611bba565b5060208310610133831016604e8410600b8410161715611b905782820a905083811115611b8b57611b8a61191b565b5b611bba565b611b9d8484846001611a9b565b92509050818404811115611bb457611bb361191b565b5b81810290505b9392505050565b6000611bcc826110ab565b9150611bd7836110ab565b9250611c047fffffffffffffffffffffffffffffffffffffffffffffffffffffffffffffffff8484611aee565b90509291505056fea2646970667358221220bf2116e97cb71ce5ac9a94d4675b338b629fcdf9b73e4d7974b058ec0e0ea8e664736f6c634300080a0033",
  "immutableReferences": {},
  "source": "// SPDX-License-Identifier: MIT\npragma solidity ^0.8.7;\n\nimport \"@chainlink/contracts/src/v0.8/ChainlinkClient.sol\";\n\ncontract PollutionDataContract is ChainlinkClient {\n    using Chainlink for Chainlink.Request;\n\n    address private oracle;\n    bytes32 private jobId;\n    uint256 private fee;\n\n    mapping(bytes32 => address) public toAddresses;\n    mapping(bytes32 => string) public toLat;\n    mapping(bytes32 => string) public toLon;\n\n    constructor() {\n        setPublicChainlinkToken();\n        oracle = 0xd57018342B19Bc74dD6f5Fa8B73c934694b3aC10;\n        jobId = \"c7ef2e55f68e45b4b98219b8f2854189\";\n        fee = 0;\n    }\n\n    function requestMultipleParameters(string memory _lat, string memory _lon)\n        public\n        returns (bytes32 requestId)\n    {\n        Chainlink.Request memory req = buildChainlinkRequest(\n            jobId,\n            address(this),\n            this.fulfillMultipleParameters.selector\n        );\n\n        req.add(\"lat\", _lat);\n        req.add(\"lon\", _lon);\n\n        // Sends the request\n        requestId = sendChainlinkRequestTo(oracle, req, fee);\n        toAddresses[requestId] = msg.sender;\n        toLat[requestId] = _lat;\n        toLon[requestId] = _lon;\n    }\n\n    event RequestMultipleFulfilled(\n        bytes32 requestId_,\n        uint256 aqi_,\n        uint256 no2_,\n        uint256 o3_,\n        uint256 pm10_,\n        uint256 pm2_5_,\n        address indexed requester_\n    );\n\n    event coordinatesAndAddress(\n        bytes32 requestId_,\n        string lat_,\n        string lon_,\n        uint256 timestamp_,\n        address indexed requester_\n    );\n\n    function fulfillMultipleParameters(\n        bytes32 requestId,\n        uint256 aqi_response,\n        uint256 no2_response,\n        uint256 o3_response,\n        uint256 pm10_response,\n        uint256 pm2_5_response\n    ) public recordChainlinkFulfillment(requestId) {\n        emit RequestMultipleFulfilled(\n            requestId,\n            aqi_response,\n            no2_response,\n            o3_response,\n            pm10_response,\n            pm2_5_response,\n            toAddresses[requestId]\n        );\n        emit coordinatesAndAddress(\n            requestId,\n            toLat[requestId],\n            toLon[requestId],\n            block.timestamp,\n            toAddresses[requestId]\n        );\n    }\n\n    // function withdrawLink() external {} - Implement a withdraw function to avoid locking your LINK in the contract\n}\n",
  "sourcePath": "/Users/np/Desktop/Chainlink hackathon/ChainlinkProject/net.zero/netZeroReactApp/contracts/PollutionDataContract.sol",
  "compiler": {
    "name": "solc",
    "version": "0.8.10+commit.fc410830.Emscripten.clang"
  },
  "schemaVersion": "3.4.3",
  "updatedAt": "2021-11-21T08:56:33.224Z",
  "devdoc": {
    "kind": "dev",
    "methods": {},
    "version": 1
  },
  "userdoc": {
    "kind": "user",
    "methods": {},
    "version": 1
  }
}