{
  "contractName": "PollutionDataContract",
  "abi": [
    {
      "inputs": [],
      "stateMutability": "nonpayable",
      "type": "constructor"
    },
    {
      "anonymous": false,
      "inputs": [
        {
          "indexed": true,
          "internalType": "bytes32",
          "name": "id",
          "type": "bytes32"
        }
      ],
      "name": "ChainlinkCancelled",
      "type": "event"
    },
    {
      "anonymous": false,
      "inputs": [
        {
          "indexed": true,
          "internalType": "bytes32",
          "name": "id",
          "type": "bytes32"
        }
      ],
      "name": "ChainlinkFulfilled",
      "type": "event"
    },
    {
      "anonymous": false,
      "inputs": [
        {
          "indexed": true,
          "internalType": "bytes32",
          "name": "id",
          "type": "bytes32"
        }
      ],
      "name": "ChainlinkRequested",
      "type": "event"
    },
    {
      "anonymous": false,
      "inputs": [
        {
          "indexed": false,
          "internalType": "bytes32",
          "name": "requestId_",
          "type": "bytes32"
        },
        {
          "indexed": false,
          "internalType": "uint256",
          "name": "aqi_",
          "type": "uint256"
        },
        {
          "indexed": false,
          "internalType": "uint256",
          "name": "no2_",
          "type": "uint256"
        },
        {
          "indexed": false,
          "internalType": "uint256",
          "name": "o3_",
          "type": "uint256"
        },
        {
          "indexed": false,
          "internalType": "uint256",
          "name": "pm10_",
          "type": "uint256"
        },
        {
          "indexed": false,
          "internalType": "uint256",
          "name": "pm2_5_",
          "type": "uint256"
        },
        {
          "indexed": true,
          "internalType": "address",
          "name": "requester_",
          "type": "address"
        }
      ],
      "name": "RequestMultipleFulfilled",
      "type": "event"
    },
    {
      "anonymous": false,
      "inputs": [
        {
          "indexed": false,
          "internalType": "bytes32",
          "name": "requestId_",
          "type": "bytes32"
        },
        {
          "indexed": false,
          "internalType": "string",
          "name": "lat_",
          "type": "string"
        },
        {
          "indexed": false,
          "internalType": "string",
          "name": "lon_",
          "type": "string"
        },
        {
          "indexed": false,
          "internalType": "uint256",
          "name": "timestamp_",
          "type": "uint256"
        },
        {
          "indexed": true,
          "internalType": "address",
          "name": "requester_",
          "type": "address"
        }
      ],
      "name": "coordinatesAndAddress",
      "type": "event"
    },
    {
      "inputs": [
        {
          "internalType": "bytes32",
          "name": "",
          "type": "bytes32"
        }
      ],
      "name": "toAddresses",
      "outputs": [
        {
          "internalType": "address",
          "name": "",
          "type": "address"
        }
      ],
      "stateMutability": "view",
      "type": "function",
      "constant": true
    },
    {
      "inputs": [
        {
          "internalType": "bytes32",
          "name": "",
          "type": "bytes32"
        }
      ],
      "name": "toLat",
      "outputs": [
        {
          "internalType": "string",
          "name": "",
          "type": "string"
        }
      ],
      "stateMutability": "view",
      "type": "function",
      "constant": true
    },
    {
      "inputs": [
        {
          "internalType": "bytes32",
          "name": "",
          "type": "bytes32"
        }
      ],
      "name": "toLon",
      "outputs": [
        {
          "internalType": "string",
          "name": "",
          "type": "string"
        }
      ],
      "stateMutability": "view",
      "type": "function",
      "constant": true
    },
    {
      "inputs": [
        {
          "internalType": "string",
          "name": "_lat",
          "type": "string"
        },
        {
          "internalType": "string",
          "name": "_lon",
          "type": "string"
        }
      ],
      "name": "addLocationDataAndFetchPollutionData",
      "outputs": [],
      "stateMutability": "nonpayable",
      "type": "function"
    },
    {
      "inputs": [
        {
          "internalType": "bytes",
          "name": "",
          "type": "bytes"
        }
      ],
      "name": "checkUpkeep",
      "outputs": [
        {
          "internalType": "bool",
          "name": "upkeepNeeded",
          "type": "bool"
        },
        {
          "internalType": "bytes",
          "name": "",
          "type": "bytes"
        }
      ],
      "stateMutability": "nonpayable",
      "type": "function"
    },
    {
      "inputs": [
        {
          "internalType": "bytes",
          "name": "",
          "type": "bytes"
        }
      ],
      "name": "performUpkeep",
      "outputs": [],
      "stateMutability": "nonpayable",
      "type": "function"
    },
    {
      "inputs": [
        {
          "internalType": "string",
          "name": "_lat",
          "type": "string"
        },
        {
          "internalType": "string",
          "name": "_lon",
          "type": "string"
        }
      ],
      "name": "requestMultipleParameters",
      "outputs": [
        {
          "internalType": "bytes32",
          "name": "requestId",
          "type": "bytes32"
        }
      ],
      "stateMutability": "nonpayable",
      "type": "function"
    },
    {
      "inputs": [
        {
          "internalType": "string",
          "name": "_lat",
          "type": "string"
        },
        {
          "internalType": "string",
          "name": "_lon",
          "type": "string"
        },
        {
          "internalType": "address",
          "name": "_sender",
          "type": "address"
        }
      ],
      "name": "requestMultipleParametersFromUser",
      "outputs": [
        {
          "internalType": "bytes32",
          "name": "requestId",
          "type": "bytes32"
        }
      ],
      "stateMutability": "nonpayable",
      "type": "function"
    },
    {
      "inputs": [
        {
          "internalType": "bytes32",
          "name": "requestId",
          "type": "bytes32"
        },
        {
          "internalType": "uint256",
          "name": "aqi_response",
          "type": "uint256"
        },
        {
          "internalType": "uint256",
          "name": "no2_response",
          "type": "uint256"
        },
        {
          "internalType": "uint256",
          "name": "o3_response",
          "type": "uint256"
        },
        {
          "internalType": "uint256",
          "name": "pm10_response",
          "type": "uint256"
        },
        {
          "internalType": "uint256",
          "name": "pm2_5_response",
          "type": "uint256"
        }
      ],
      "name": "fulfillMultipleParameters",
      "outputs": [],
      "stateMutability": "nonpayable",
      "type": "function"
    }
  ],
  "bytecode": "0x60a060405260016004553480156200001657600080fd5b5062000027620000c260201b60201c565b73d57018342b19bc74dd6f5fa8b73c934694b3ac10600760006101000a81548173ffffffffffffffffffffffffffffffffffffffff021916908373ffffffffffffffffffffffffffffffffffffffff1602179055507f633765663265353566363865343562346239383231396238663238353431383960088190555060006009819055506102586080818152505042600a819055506200023a565b6200015873c89bd4e1632d3a43cb03aaad5262cbe4038bc57173ffffffffffffffffffffffffffffffffffffffff166338cc48316040518163ffffffff1660e01b8152600401602060405180830381865afa15801562000126573d6000803e3d6000fd5b505050506040513d601f19601f820116820180604052508101906200014c919062000208565b6200015a60201b60201c565b565b80600260006101000a81548173ffffffffffffffffffffffffffffffffffffffff021916908373ffffffffffffffffffffffffffffffffffffffff16021790555050565b600080fd5b600073ffffffffffffffffffffffffffffffffffffffff82169050919050565b6000620001d082620001a3565b9050919050565b620001e281620001c3565b8114620001ee57600080fd5b50565b6000815190506200020281620001d7565b92915050565b6000602082840312156200022157620002206200019e565b5b60006200023184828501620001f1565b91505092915050565b60805161244f62000256600039600061064d015261244f6000f3fe608060405234801561001057600080fd5b50600436106100935760003560e01c80636e04ff0d116100665780636e04ff0d1461014457806396102b19146101755780639d150c6314610191578063c0b05bd8146101ad578063fac31484146101dd57610093565b80632097f08d146100985780634585e33b146100c857806359717033146100e45780635bb3816014610114575b600080fd5b6100b260048036038101906100ad91906115fe565b61020d565b6040516100bf91906116c4565b60405180910390f35b6100e260048036038101906100dd919061174b565b6102ad565b005b6100fe60048036038101906100f99190611926565b61041f565b60405161010b91906119c0565b60405180910390f35b61012e600480360381019061012991906115fe565b6105a7565b60405161013b91906116c4565b60405180910390f35b61015e6004803603810190610159919061174b565b610647565b60405161016c929190611a4b565b60405180910390f35b61018f600480360381019061018a9190611a7b565b610684565b005b6101ab60048036038101906101a69190611b29565b61076f565b005b6101c760048036038101906101c29190611a7b565b6109b3565b6040516101d491906119c0565b60405180910390f35b6101f760048036038101906101f291906115fe565b610bf1565b6040516102049190611bc5565b60405180910390f35b600f602052806000526040600020600091509050805461022c90611c0f565b80601f016020809104026020016040519081016040528092919081815260200182805461025890611c0f565b80156102a55780601f1061027a576101008083540402835291602001916102a5565b820191906000526020600020905b81548152906001019060200180831161028857829003601f168201915b505050505081565b42600a819055506000600b600654815481106102cc576102cb611c41565b5b9060005260206000200180546102e190611c0f565b80601f016020809104026020016040519081016040528092919081815260200182805461030d90611c0f565b801561035a5780601f1061032f5761010080835404028352916020019161035a565b820191906000526020600020905b81548152906001019060200180831161033d57829003601f168201915b505050505090506000600c6006548154811061037957610378611c41565b5b90600052602060002001805461038e90611c0f565b80601f01602080910402602001604051908101604052809291908181526020018280546103ba90611c0f565b80156104075780601f106103dc57610100808354040283529160200191610407565b820191906000526020600020905b8154815290600101906020018083116103ea57829003601f168201915b5050505050905061041882826109b3565b5050505050565b60008061043660085430639d150c6360e01b610c24565b90506104826040518060400160405280600381526020017f6c617400000000000000000000000000000000000000000000000000000000008152508683610c559092919063ffffffff16565b6104cc6040518060400160405280600381526020017f6c6f6e00000000000000000000000000000000000000000000000000000000008152508583610c559092919063ffffffff16565b6104fb600760009054906101000a900473ffffffffffffffffffffffffffffffffffffffff1682600954610c88565b915084600f600084815260200190815260200160002090805190602001906105249291906113fd565b508360106000848152602001908152602001600020908051906020019061054c9291906113fd565b5082600e600084815260200190815260200160002060006101000a81548173ffffffffffffffffffffffffffffffffffffffff021916908373ffffffffffffffffffffffffffffffffffffffff160217905550509392505050565b601060205280600052604060002060009150905080546105c690611c0f565b80601f01602080910402602001604051908101604052809291908181526020018280546105f290611c0f565b801561063f5780601f106106145761010080835404028352916020019161063f565b820191906000526020600020905b81548152906001019060200180831161062257829003601f168201915b505050505081565b600060607f0000000000000000000000000000000000000000000000000000000000000000600a544261067a9190611c9f565b1191509250929050565b600b829080600181540180825580915050600190039060005260206000200160009091909190915090805190602001906106bf9291906113fd565b50600c819080600181540180825580915050600190039060005260206000200160009091909190915090805190602001906106fb9291906113fd565b50600d339080600181540180825580915050600190039060005260206000200160009091909190916101000a81548173ffffffffffffffffffffffffffffffffffffffff021916908373ffffffffffffffffffffffffffffffffffffffff16021790555061076a82823361041f565b505050565b856005600082815260200190815260200160002060009054906101000a900473ffffffffffffffffffffffffffffffffffffffff1673ffffffffffffffffffffffffffffffffffffffff163373ffffffffffffffffffffffffffffffffffffffff1614610811576040517f08c379a000000000000000000000000000000000000000000000000000000000815260040161080890611d45565b60405180910390fd5b6005600082815260200190815260200160002060006101000a81549073ffffffffffffffffffffffffffffffffffffffff0219169055807f7cc135e0cebb02c3480ae5d74d377283180a2601f8f644edf7987b009316c63a60405160405180910390a2600e600088815260200190815260200160002060009054906101000a900473ffffffffffffffffffffffffffffffffffffffff1673ffffffffffffffffffffffffffffffffffffffff167f66e53834ed3a3eeec84218d6fe78a9efd0f2d18555828035994dc57a3d739f438888888888886040516108f796959493929190611d74565b60405180910390a2600e600088815260200190815260200160002060009054906101000a900473ffffffffffffffffffffffffffffffffffffffff1673ffffffffffffffffffffffffffffffffffffffff167fb297200a913cab14c9a8135b79e90805060b649857c9fc4d6c360e7b026dbcec88600f60008b8152602001908152602001600020601060008c8152602001908152602001600020426040516109a29493929190611e6a565b60405180910390a250505050505050565b6000806109ca60085430639d150c6360e01b610c24565b9050610a166040518060400160405280600381526020017f6c617400000000000000000000000000000000000000000000000000000000008152508583610c559092919063ffffffff16565b610a606040518060400160405280600381526020017f6c6f6e00000000000000000000000000000000000000000000000000000000008152508483610c559092919063ffffffff16565b610a8f600760009054906101000a900473ffffffffffffffffffffffffffffffffffffffff1682600954610c88565b9150600b60065481548110610aa757610aa6611c41565b5b90600052602060002001600f6000848152602001908152602001600020908054610ad090611c0f565b610adb929190611483565b50600c60065481548110610af257610af1611c41565b5b9060005260206000200160106000848152602001908152602001600020908054610b1b90611c0f565b610b26929190611483565b50600d60065481548110610b3d57610b3c611c41565b5b9060005260206000200160009054906101000a900473ffffffffffffffffffffffffffffffffffffffff16600e600084815260200190815260200160002060006101000a81548173ffffffffffffffffffffffffffffffffffffffff021916908373ffffffffffffffffffffffffffffffffffffffff160217905550600d8054905060065410610bd4576000600681905550610bea565b6001600654610be39190611ebd565b6006819055505b5092915050565b600e6020528060005260406000206000915054906101000a900473ffffffffffffffffffffffffffffffffffffffff1681565b610c2c611510565b610c34611510565b610c4b85858584610ca8909392919063ffffffff16565b9150509392505050565b610c6c828460800151610d5890919063ffffffff16565b610c83818460800151610d5890919063ffffffff16565b505050565b6000610c9f8484846001634042994660e01b610d7d565b90509392505050565b610cb0611510565b610cc08560800151610100610fd6565b508385600001818152505082856020019073ffffffffffffffffffffffffffffffffffffffff16908173ffffffffffffffffffffffffffffffffffffffff16815250508185604001907bffffffffffffffffffffffffffffffffffffffffffffffffffffffff191690817bffffffffffffffffffffffffffffffffffffffffffffffffffffffff191681525050849050949350505050565b610d658260038351611040565b610d78818361118590919063ffffffff16565b505050565b600030600454604051602001610d94929190611fcc565b604051602081830303815290604052805190602001209050600454856060018181525050856005600083815260200190815260200160002060006101000a81548173ffffffffffffffffffffffffffffffffffffffff021916908373ffffffffffffffffffffffffffffffffffffffff160217905550807fb5e6e01e79f91267dc17b4e6314d5d4d03593d2ceee0fbb452b750bd70ea5af960405160405180910390a2600082600080886000015189602001518a604001518b606001518a8d6080015160000151604051602401610e72989796959493929190612033565b604051602081830303815290604052907bffffffffffffffffffffffffffffffffffffffffffffffffffffffff19166020820180517bffffffffffffffffffffffffffffffffffffffffffffffffffffffff83818316178352505050509050600260009054906101000a900473ffffffffffffffffffffffffffffffffffffffff1673ffffffffffffffffffffffffffffffffffffffff16634000aea08887846040518463ffffffff1660e01b8152600401610f30939291906120b8565b6020604051808303816000875af1158015610f4f573d6000803e3d6000fd5b505050506040513d601f19601f82011682018060405250810190610f739190612122565b610fb2576040517f08c379a0000000000000000000000000000000000000000000000000000000008152600401610fa9906121c1565b60405180910390fd5b600160046000828254610fc59190611ebd565b925050819055505095945050505050565b610fde61157d565b6000602083610fed9190612210565b1461101957602082610fff9190612210565b602061100b9190611c9f565b826110169190611ebd565b91505b81836020018181525050604051808452600081528281016020016040525082905092915050565b6017811161106d576110678160058460ff16901b60ff1617846111a790919063ffffffff16565b50611180565b60ff81116110af57611092601860058460ff16901b17846111a790919063ffffffff16565b506110a9816001856111c79092919063ffffffff16565b5061117f565b61ffff81116110f2576110d5601960058460ff16901b17846111a790919063ffffffff16565b506110ec816002856111c79092919063ffffffff16565b5061117e565b63ffffffff81116111375761111a601a60058460ff16901b17846111a790919063ffffffff16565b50611131816004856111c79092919063ffffffff16565b5061117d565b67ffffffffffffffff811161117c57611163601b60058460ff16901b17846111a790919063ffffffff16565b5061117a816008856111c79092919063ffffffff16565b505b5b5b5b5b505050565b61118d61157d565b61119f838460000151518485516111e9565b905092915050565b6111af61157d565b6111bf83846000015151846112d8565b905092915050565b6111cf61157d565b6111e084856000015151858561132f565b90509392505050565b6111f161157d565b82518211156111ff57600080fd5b846020015182856112109190611ebd565b111561124557611244856002611235886020015188876112309190611ebd565b6113bd565b61123f9190612241565b6113d9565b5b6000808651805187602083010193508088870111156112645787860182525b60208701925050505b602084106112ab57805182526020826112869190611ebd565b91506020816112959190611ebd565b90506020846112a49190611c9f565b935061126d565b60006001856020036101000a03905080198251168184511681811785525050508692505050949350505050565b6112e061157d565b836020015183106113065761130584600286602001516113009190612241565b6113d9565b5b8351805160208583010184815381861415611322576001820183525b5050508390509392505050565b61133761157d565b846020015184836113489190611ebd565b11156113705761136f85600286856113609190611ebd565b61136a9190612241565b6113d9565b5b600060018361010061138291906123ce565b61138c9190611c9f565b905085518386820101858319825116178152815185880111156113af5784870182525b505085915050949350505050565b6000818311156113cf578290506113d3565b8190505b92915050565b6000826000015190506113ec8383610fd6565b506113f78382611185565b50505050565b82805461140990611c0f565b90600052602060002090601f01602090048101928261142b5760008555611472565b82601f1061144457805160ff1916838001178555611472565b82800160010185558215611472579182015b82811115611471578251825591602001919060010190611456565b5b50905061147f9190611597565b5090565b82805461148f90611c0f565b90600052602060002090601f0160209004810192826114b157600085556114ff565b82601f106114c257805485556114ff565b828001600101855582156114ff57600052602060002091601f016020900482015b828111156114fe5782548255916001019190600101906114e3565b5b50905061150c9190611597565b5090565b6040518060a0016040528060008019168152602001600073ffffffffffffffffffffffffffffffffffffffff16815260200160007bffffffffffffffffffffffffffffffffffffffffffffffffffffffff191681526020016000815260200161157761157d565b81525090565b604051806040016040528060608152602001600081525090565b5b808211156115b0576000816000905550600101611598565b5090565b6000604051905090565b600080fd5b600080fd5b6000819050919050565b6115db816115c8565b81146115e657600080fd5b50565b6000813590506115f8816115d2565b92915050565b600060208284031215611614576116136115be565b5b6000611622848285016115e9565b91505092915050565b600081519050919050565b600082825260208201905092915050565b60005b8381101561166557808201518184015260208101905061164a565b83811115611674576000848401525b50505050565b6000601f19601f8301169050919050565b60006116968261162b565b6116a08185611636565b93506116b0818560208601611647565b6116b98161167a565b840191505092915050565b600060208201905081810360008301526116de818461168b565b905092915050565b600080fd5b600080fd5b600080fd5b60008083601f84011261170b5761170a6116e6565b5b8235905067ffffffffffffffff811115611728576117276116eb565b5b602083019150836001820283011115611744576117436116f0565b5b9250929050565b60008060208385031215611762576117616115be565b5b600083013567ffffffffffffffff8111156117805761177f6115c3565b5b61178c858286016116f5565b92509250509250929050565b600080fd5b7f4e487b7100000000000000000000000000000000000000000000000000000000600052604160045260246000fd5b6117d58261167a565b810181811067ffffffffffffffff821117156117f4576117f361179d565b5b80604052505050565b60006118076115b4565b905061181382826117cc565b919050565b600067ffffffffffffffff8211156118335761183261179d565b5b61183c8261167a565b9050602081019050919050565b82818337600083830152505050565b600061186b61186684611818565b6117fd565b90508281526020810184848401111561188757611886611798565b5b611892848285611849565b509392505050565b600082601f8301126118af576118ae6116e6565b5b81356118bf848260208601611858565b91505092915050565b600073ffffffffffffffffffffffffffffffffffffffff82169050919050565b60006118f3826118c8565b9050919050565b611903816118e8565b811461190e57600080fd5b50565b600081359050611920816118fa565b92915050565b60008060006060848603121561193f5761193e6115be565b5b600084013567ffffffffffffffff81111561195d5761195c6115c3565b5b6119698682870161189a565b935050602084013567ffffffffffffffff81111561198a576119896115c3565b5b6119968682870161189a565b92505060406119a786828701611911565b9150509250925092565b6119ba816115c8565b82525050565b60006020820190506119d560008301846119b1565b92915050565b60008115159050919050565b6119f0816119db565b82525050565b600081519050919050565b600082825260208201905092915050565b6000611a1d826119f6565b611a278185611a01565b9350611a37818560208601611647565b611a408161167a565b840191505092915050565b6000604082019050611a6060008301856119e7565b8181036020830152611a728184611a12565b90509392505050565b60008060408385031215611a9257611a916115be565b5b600083013567ffffffffffffffff811115611ab057611aaf6115c3565b5b611abc8582860161189a565b925050602083013567ffffffffffffffff811115611add57611adc6115c3565b5b611ae98582860161189a565b9150509250929050565b6000819050919050565b611b0681611af3565b8114611b1157600080fd5b50565b600081359050611b2381611afd565b92915050565b60008060008060008060c08789031215611b4657611b456115be565b5b6000611b5489828a016115e9565b9650506020611b6589828a01611b14565b9550506040611b7689828a01611b14565b9450506060611b8789828a01611b14565b9350506080611b9889828a01611b14565b92505060a0611ba989828a01611b14565b9150509295509295509295565b611bbf816118e8565b82525050565b6000602082019050611bda6000830184611bb6565b92915050565b7f4e487b7100000000000000000000000000000000000000000000000000000000600052602260045260246000fd5b60006002820490506001821680611c2757607f821691505b60208210811415611c3b57611c3a611be0565b5b50919050565b7f4e487b7100000000000000000000000000000000000000000000000000000000600052603260045260246000fd5b7f4e487b7100000000000000000000000000000000000000000000000000000000600052601160045260246000fd5b6000611caa82611af3565b9150611cb583611af3565b925082821015611cc857611cc7611c70565b5b828203905092915050565b7f536f75726365206d75737420626520746865206f7261636c65206f662074686560008201527f2072657175657374000000000000000000000000000000000000000000000000602082015250565b6000611d2f602883611636565b9150611d3a82611cd3565b604082019050919050565b60006020820190508181036000830152611d5e81611d22565b9050919050565b611d6e81611af3565b82525050565b600060c082019050611d8960008301896119b1565b611d966020830188611d65565b611da36040830187611d65565b611db06060830186611d65565b611dbd6080830185611d65565b611dca60a0830184611d65565b979650505050505050565b60008190508160005260206000209050919050565b60008154611df781611c0f565b611e018186611636565b94506001821660008114611e1c5760018114611e2e57611e61565b60ff1983168652602086019350611e61565b611e3785611dd5565b60005b83811015611e5957815481890152600182019150602081019050611e3a565b808801955050505b50505092915050565b6000608082019050611e7f60008301876119b1565b8181036020830152611e918186611dea565b90508181036040830152611ea58185611dea565b9050611eb46060830184611d65565b95945050505050565b6000611ec882611af3565b9150611ed383611af3565b9250827fffffffffffffffffffffffffffffffffffffffffffffffffffffffffffffffff03821115611f0857611f07611c70565b5b828201905092915050565b6000819050919050565b6000611f38611f33611f2e846118c8565b611f13565b6118c8565b9050919050565b6000611f4a82611f1d565b9050919050565b6000611f5c82611f3f565b9050919050565b60008160601b9050919050565b6000611f7b82611f63565b9050919050565b6000611f8d82611f70565b9050919050565b611fa5611fa082611f51565b611f82565b82525050565b6000819050919050565b611fc6611fc182611af3565b611fab565b82525050565b6000611fd88285611f94565b601482019150611fe88284611fb5565b6020820191508190509392505050565b60007fffffffff0000000000000000000000000000000000000000000000000000000082169050919050565b61202d81611ff8565b82525050565b600061010082019050612049600083018b611bb6565b612056602083018a611d65565b61206360408301896119b1565b6120706060830188611bb6565b61207d6080830187612024565b61208a60a0830186611d65565b61209760c0830185611d65565b81810360e08301526120a98184611a12565b90509998505050505050505050565b60006060820190506120cd6000830186611bb6565b6120da6020830185611d65565b81810360408301526120ec8184611a12565b9050949350505050565b6120ff816119db565b811461210a57600080fd5b50565b60008151905061211c816120f6565b92915050565b600060208284031215612138576121376115be565b5b60006121468482850161210d565b91505092915050565b7f756e61626c6520746f207472616e73666572416e6443616c6c20746f206f726160008201527f636c650000000000000000000000000000000000000000000000000000000000602082015250565b60006121ab602383611636565b91506121b68261214f565b604082019050919050565b600060208201905081810360008301526121da8161219e565b9050919050565b7f4e487b7100000000000000000000000000000000000000000000000000000000600052601260045260246000fd5b600061221b82611af3565b915061222683611af3565b925082612236576122356121e1565b5b828206905092915050565b600061224c82611af3565b915061225783611af3565b9250817fffffffffffffffffffffffffffffffffffffffffffffffffffffffffffffffff04831182151516156122905761228f611c70565b5b828202905092915050565b60008160011c9050919050565b6000808291508390505b60018511156122f2578086048111156122ce576122cd611c70565b5b60018516156122dd5780820291505b80810290506122eb8561229b565b94506122b2565b94509492505050565b60008261230b57600190506123c7565b8161231957600090506123c7565b816001811461232f576002811461233957612368565b60019150506123c7565b60ff84111561234b5761234a611c70565b5b8360020a91508482111561236257612361611c70565b5b506123c7565b5060208310610133831016604e8410600b841016171561239d5782820a90508381111561239857612397611c70565b5b6123c7565b6123aa84848460016122a8565b925090508184048111156123c1576123c0611c70565b5b81810290505b9392505050565b60006123d982611af3565b91506123e483611af3565b92506124117fffffffffffffffffffffffffffffffffffffffffffffffffffffffffffffffff84846122fb565b90509291505056fea264697066735822122039f525d597cd390e3df75db6326ffe69cae80b7e6e73ede77622ded7c737440c64736f6c634300080a0033",
  "immutableReferences": {
    "2355": [
      {
        "length": 32,
        "start": 1613
      }
    ]
  },
  "source": "// SPDX-License-Identifier: MIT\npragma solidity ^0.8.7;\n\nimport \"@chainlink/contracts/src/v0.8/ChainlinkClient.sol\";\nimport \"@chainlink/contracts/src/v0.8/interfaces/KeeperCompatibleInterface.sol\";\n\ncontract PollutionDataContract is ChainlinkClient, KeeperCompatibleInterface {\n    using Chainlink for Chainlink.Request;\n\n    uint256 private counter;\n\n    address private oracle;\n    bytes32 private jobId;\n    uint256 private fee;\n\n    uint256 private immutable interval;\n    uint256 private lastTimeStamp;\n\n    string[] private latArray;\n    string[] private lonArray;\n    address[] private creatorArray;\n\n    mapping(bytes32 => address) public toAddresses;\n    mapping(bytes32 => string) public toLat;\n    mapping(bytes32 => string) public toLon;\n\n    constructor() {\n        setPublicChainlinkToken();\n        oracle = 0xd57018342B19Bc74dD6f5Fa8B73c934694b3aC10;\n        jobId = \"c7ef2e55f68e45b4b98219b8f2854189\";\n        fee = 0;\n        interval = 10 minutes;\n        lastTimeStamp = block.timestamp;\n    }\n\n    //function -> add to array and requestMultipleParameters\n    function addLocationDataAndFetchPollutionData(\n        string memory _lat,\n        string memory _lon\n    ) public {\n        latArray.push(_lat);\n        lonArray.push(_lon);\n        creatorArray.push(msg.sender);\n        requestMultipleParametersFromUser(_lat, _lon, msg.sender);\n    }\n\n    function checkUpkeep(\n        bytes calldata /* checkData */\n    )\n        external\n        override\n        returns (\n            bool upkeepNeeded,\n            bytes memory /* performData */\n        )\n    {\n        upkeepNeeded = (block.timestamp - lastTimeStamp) > interval;\n    }\n\n    function performUpkeep(\n        bytes calldata /* performData */\n    ) external override {\n        lastTimeStamp = block.timestamp;\n\n        string memory _lat = latArray[counter];\n        string memory _lon = lonArray[counter];\n\n        requestMultipleParameters(_lat, _lon);\n    }\n\n    function requestMultipleParameters(string memory _lat, string memory _lon)\n        public\n        returns (bytes32 requestId)\n    {\n        Chainlink.Request memory req = buildChainlinkRequest(\n            jobId,\n            address(this),\n            this.fulfillMultipleParameters.selector\n        );\n\n        req.add(\"lat\", _lat);\n        req.add(\"lon\", _lon);\n\n        // Sends the request\n        requestId = sendChainlinkRequestTo(oracle, req, fee);\n\n        toLat[requestId] = latArray[counter];\n        toLon[requestId] = lonArray[counter];\n        toAddresses[requestId] = creatorArray[counter];\n\n        if (counter >= creatorArray.length) {\n            counter = 0;\n        } else {\n            counter = counter + 1;\n        }\n    }\n\n    function requestMultipleParametersFromUser(\n        string memory _lat,\n        string memory _lon,\n        address _sender\n    ) public returns (bytes32 requestId) {\n        Chainlink.Request memory req = buildChainlinkRequest(\n            jobId,\n            address(this),\n            this.fulfillMultipleParameters.selector\n        );\n\n        req.add(\"lat\", _lat);\n        req.add(\"lon\", _lon);\n\n        // Sends the request\n        requestId = sendChainlinkRequestTo(oracle, req, fee);\n        toLat[requestId] = _lat;\n        toLon[requestId] = _lon;\n        toAddresses[requestId] = _sender;\n    }\n\n    event RequestMultipleFulfilled(\n        bytes32 requestId_,\n        uint256 aqi_,\n        uint256 no2_,\n        uint256 o3_,\n        uint256 pm10_,\n        uint256 pm2_5_,\n        address indexed requester_\n    );\n\n    event coordinatesAndAddress(\n        bytes32 requestId_,\n        string lat_,\n        string lon_,\n        uint256 timestamp_,\n        address indexed requester_\n    );\n\n    function fulfillMultipleParameters(\n        bytes32 requestId,\n        uint256 aqi_response,\n        uint256 no2_response,\n        uint256 o3_response,\n        uint256 pm10_response,\n        uint256 pm2_5_response\n    ) public recordChainlinkFulfillment(requestId) {\n        emit RequestMultipleFulfilled(\n            requestId,\n            aqi_response,\n            no2_response,\n            o3_response,\n            pm10_response,\n            pm2_5_response,\n            toAddresses[requestId]\n        );\n        emit coordinatesAndAddress(\n            requestId,\n            toLat[requestId],\n            toLon[requestId],\n            block.timestamp,\n            toAddresses[requestId]\n        );\n\n        //GTAX minted on some condition\n        //if(no2 > 200) { mint gtax}\n    }\n\n    // function withdrawLink() external {} - Implement a withdraw function to avoid locking your LINK in the contract\n}\n",
  "sourcePath": "/Users/np/Desktop/Chainlink hackathon/ChainlinkProject/net.zero/netZeroReactApp/contracts/PollutionDataContract.sol",
  "compiler": {
    "name": "solc",
    "version": "0.8.10+commit.fc410830.Emscripten.clang"
  },
  "schemaVersion": "3.4.3",
  "updatedAt": "2021-11-22T16:02:00.923Z",
  "networkType": "ethereum",
  "devdoc": {
    "kind": "dev",
    "methods": {},
    "version": 1
  },
  "userdoc": {
    "kind": "user",
    "methods": {},
    "version": 1
  }
}