{
  "contractName": "PollutionDataContract",
  "abi": [
    {
      "inputs": [],
      "stateMutability": "nonpayable",
      "type": "constructor"
    },
    {
      "anonymous": false,
      "inputs": [
        {
          "indexed": true,
          "internalType": "bytes32",
          "name": "id",
          "type": "bytes32"
        }
      ],
      "name": "ChainlinkCancelled",
      "type": "event"
    },
    {
      "anonymous": false,
      "inputs": [
        {
          "indexed": true,
          "internalType": "bytes32",
          "name": "id",
          "type": "bytes32"
        }
      ],
      "name": "ChainlinkFulfilled",
      "type": "event"
    },
    {
      "anonymous": false,
      "inputs": [
        {
          "indexed": true,
          "internalType": "bytes32",
          "name": "id",
          "type": "bytes32"
        }
      ],
      "name": "ChainlinkRequested",
      "type": "event"
    },
    {
      "anonymous": false,
      "inputs": [
        {
          "indexed": false,
          "internalType": "bytes32",
          "name": "requestId_",
          "type": "bytes32"
        },
        {
          "indexed": false,
          "internalType": "uint256",
          "name": "aqi_",
          "type": "uint256"
        },
        {
          "indexed": false,
          "internalType": "uint256",
          "name": "no2_",
          "type": "uint256"
        },
        {
          "indexed": false,
          "internalType": "uint256",
          "name": "o3_",
          "type": "uint256"
        },
        {
          "indexed": false,
          "internalType": "uint256",
          "name": "pm10_",
          "type": "uint256"
        },
        {
          "indexed": false,
          "internalType": "uint256",
          "name": "pm2_5_",
          "type": "uint256"
        },
        {
          "indexed": true,
          "internalType": "address",
          "name": "requester_",
          "type": "address"
        }
      ],
      "name": "RequestMultipleFulfilled",
      "type": "event"
    },
    {
      "anonymous": false,
      "inputs": [
        {
          "indexed": false,
          "internalType": "bytes32",
          "name": "requestId_",
          "type": "bytes32"
        },
        {
          "indexed": false,
          "internalType": "string",
          "name": "lat_",
          "type": "string"
        },
        {
          "indexed": false,
          "internalType": "string",
          "name": "lon_",
          "type": "string"
        },
        {
          "indexed": false,
          "internalType": "uint256",
          "name": "timestamp_",
          "type": "uint256"
        },
        {
          "indexed": true,
          "internalType": "address",
          "name": "requester_",
          "type": "address"
        }
      ],
      "name": "coordinatesAndAddress",
      "type": "event"
    },
    {
      "inputs": [],
      "name": "counter",
      "outputs": [
        {
          "internalType": "uint256",
          "name": "",
          "type": "uint256"
        }
      ],
      "stateMutability": "view",
      "type": "function",
      "constant": true
    },
    {
      "inputs": [
        {
          "internalType": "uint256",
          "name": "",
          "type": "uint256"
        }
      ],
      "name": "creatorArray",
      "outputs": [
        {
          "internalType": "address",
          "name": "",
          "type": "address"
        }
      ],
      "stateMutability": "view",
      "type": "function",
      "constant": true
    },
    {
      "inputs": [
        {
          "internalType": "uint256",
          "name": "",
          "type": "uint256"
        }
      ],
      "name": "latArray",
      "outputs": [
        {
          "internalType": "string",
          "name": "",
          "type": "string"
        }
      ],
      "stateMutability": "view",
      "type": "function",
      "constant": true
    },
    {
      "inputs": [
        {
          "internalType": "uint256",
          "name": "",
          "type": "uint256"
        }
      ],
      "name": "lonArray",
      "outputs": [
        {
          "internalType": "string",
          "name": "",
          "type": "string"
        }
      ],
      "stateMutability": "view",
      "type": "function",
      "constant": true
    },
    {
      "inputs": [
        {
          "internalType": "bytes32",
          "name": "",
          "type": "bytes32"
        }
      ],
      "name": "toAddresses",
      "outputs": [
        {
          "internalType": "address",
          "name": "",
          "type": "address"
        }
      ],
      "stateMutability": "view",
      "type": "function",
      "constant": true
    },
    {
      "inputs": [
        {
          "internalType": "bytes32",
          "name": "",
          "type": "bytes32"
        }
      ],
      "name": "toLat",
      "outputs": [
        {
          "internalType": "string",
          "name": "",
          "type": "string"
        }
      ],
      "stateMutability": "view",
      "type": "function",
      "constant": true
    },
    {
      "inputs": [
        {
          "internalType": "bytes32",
          "name": "",
          "type": "bytes32"
        }
      ],
      "name": "toLon",
      "outputs": [
        {
          "internalType": "string",
          "name": "",
          "type": "string"
        }
      ],
      "stateMutability": "view",
      "type": "function",
      "constant": true
    },
    {
      "inputs": [
        {
          "internalType": "string",
          "name": "_lat",
          "type": "string"
        },
        {
          "internalType": "string",
          "name": "_lon",
          "type": "string"
        }
      ],
      "name": "addLocationDataAndFetchPollutionData",
      "outputs": [],
      "stateMutability": "nonpayable",
      "type": "function"
    },
    {
      "inputs": [
        {
          "internalType": "bytes",
          "name": "",
          "type": "bytes"
        }
      ],
      "name": "checkUpkeep",
      "outputs": [
        {
          "internalType": "bool",
          "name": "upkeepNeeded",
          "type": "bool"
        },
        {
          "internalType": "bytes",
          "name": "",
          "type": "bytes"
        }
      ],
      "stateMutability": "nonpayable",
      "type": "function"
    },
    {
      "inputs": [
        {
          "internalType": "bytes",
          "name": "",
          "type": "bytes"
        }
      ],
      "name": "performUpkeep",
      "outputs": [],
      "stateMutability": "nonpayable",
      "type": "function"
    },
    {
      "inputs": [
        {
          "internalType": "string",
          "name": "_lat",
          "type": "string"
        },
        {
          "internalType": "string",
          "name": "_lon",
          "type": "string"
        }
      ],
      "name": "requestMultipleParameters",
      "outputs": [
        {
          "internalType": "bytes32",
          "name": "requestId",
          "type": "bytes32"
        }
      ],
      "stateMutability": "nonpayable",
      "type": "function"
    },
    {
      "inputs": [
        {
          "internalType": "string",
          "name": "_lat",
          "type": "string"
        },
        {
          "internalType": "string",
          "name": "_lon",
          "type": "string"
        },
        {
          "internalType": "address",
          "name": "_sender",
          "type": "address"
        }
      ],
      "name": "requestMultipleParametersFromUser",
      "outputs": [
        {
          "internalType": "bytes32",
          "name": "requestId",
          "type": "bytes32"
        }
      ],
      "stateMutability": "nonpayable",
      "type": "function"
    },
    {
      "inputs": [
        {
          "internalType": "bytes32",
          "name": "requestId",
          "type": "bytes32"
        },
        {
          "internalType": "uint256",
          "name": "aqi_response",
          "type": "uint256"
        },
        {
          "internalType": "uint256",
          "name": "no2_response",
          "type": "uint256"
        },
        {
          "internalType": "uint256",
          "name": "o3_response",
          "type": "uint256"
        },
        {
          "internalType": "uint256",
          "name": "pm10_response",
          "type": "uint256"
        },
        {
          "internalType": "uint256",
          "name": "pm2_5_response",
          "type": "uint256"
        }
      ],
      "name": "fulfillMultipleParameters",
      "outputs": [],
      "stateMutability": "nonpayable",
      "type": "function"
    }
  ],
  "bytecode": "0x60a060405260016004553480156200001657600080fd5b5062000027620000c160201b60201c565b73d57018342b19bc74dd6f5fa8b73c934694b3ac10600760006101000a81548173ffffffffffffffffffffffffffffffffffffffff021916908373ffffffffffffffffffffffffffffffffffffffff1602179055507f63376566326535356636386534356234623938323139623866323835343138396008819055506000600981905550603c6080818152505042600a8190555062000239565b6200015773c89bd4e1632d3a43cb03aaad5262cbe4038bc57173ffffffffffffffffffffffffffffffffffffffff166338cc48316040518163ffffffff1660e01b8152600401602060405180830381865afa15801562000125573d6000803e3d6000fd5b505050506040513d601f19601f820116820180604052508101906200014b919062000207565b6200015960201b60201c565b565b80600260006101000a81548173ffffffffffffffffffffffffffffffffffffffff021916908373ffffffffffffffffffffffffffffffffffffffff16021790555050565b600080fd5b600073ffffffffffffffffffffffffffffffffffffffff82169050919050565b6000620001cf82620001a2565b9050919050565b620001e181620001c2565b8114620001ed57600080fd5b50565b6000815190506200020181620001d6565b92915050565b60006020828403121562000220576200021f6200019d565b5b60006200023084828501620001f0565b91505092915050565b60805161271962000255600039600061083f01526127196000f3fe608060405234801561001057600080fd5b50600436106100cf5760003560e01c806361bc221a1161008c57806396102b191161006657806396102b191461025f5780639d150c631461027b578063c0b05bd814610297578063fac31484146102c7576100cf565b806361bc221a146101e05780636e04ff0d146101fe57806386463adc1461022f576100cf565b80632097f08d146100d45780632b0330ef14610104578063338f06ee146101345780634585e33b1461016457806359717033146101805780635bb38160146101b0575b600080fd5b6100ee60048036038101906100e99190611880565b6102f7565b6040516100fb9190611946565b60405180910390f35b61011e6004803603810190610119919061199e565b610397565b60405161012b9190611946565b60405180910390f35b61014e6004803603810190610149919061199e565b610443565b60405161015b9190611a0c565b60405180910390f35b61017e60048036038101906101799190611a8c565b610482565b005b61019a60048036038101906101959190611c35565b61060b565b6040516101a79190611ccf565b60405180910390f35b6101ca60048036038101906101c59190611880565b610793565b6040516101d79190611946565b60405180910390f35b6101e8610833565b6040516101f59190611cf9565b60405180910390f35b61021860048036038101906102139190611a8c565b610839565b604051610226929190611d84565b60405180910390f35b6102496004803603810190610244919061199e565b610876565b6040516102569190611946565b60405180910390f35b61027960048036038101906102749190611db4565b610922565b005b61029560048036038101906102909190611e2c565b610a0d565b005b6102b160048036038101906102ac9190611db4565b610c66565b6040516102be9190611ccf565b60405180910390f35b6102e160048036038101906102dc9190611880565b610e73565b6040516102ee9190611a0c565b60405180910390f35b600f602052806000526040600020600091509050805461031690611ee8565b80601f016020809104026020016040519081016040528092919081815260200182805461034290611ee8565b801561038f5780601f106103645761010080835404028352916020019161038f565b820191906000526020600020905b81548152906001019060200180831161037257829003601f168201915b505050505081565b600b81815481106103a757600080fd5b9060005260206000200160009150905080546103c290611ee8565b80601f01602080910402602001604051908101604052809291908181526020018280546103ee90611ee8565b801561043b5780601f106104105761010080835404028352916020019161043b565b820191906000526020600020905b81548152906001019060200180831161041e57829003601f168201915b505050505081565b600d818154811061045357600080fd5b906000526020600020016000915054906101000a900473ffffffffffffffffffffffffffffffffffffffff1681565b42600a81905550600d80549050600654106104a05760006006819055505b6000600b600654815481106104b8576104b7611f1a565b5b9060005260206000200180546104cd90611ee8565b80601f01602080910402602001604051908101604052809291908181526020018280546104f990611ee8565b80156105465780601f1061051b57610100808354040283529160200191610546565b820191906000526020600020905b81548152906001019060200180831161052957829003601f168201915b505050505090506000600c6006548154811061056557610564611f1a565b5b90600052602060002001805461057a90611ee8565b80601f01602080910402602001604051908101604052809291908181526020018280546105a690611ee8565b80156105f35780601f106105c8576101008083540402835291602001916105f3565b820191906000526020600020905b8154815290600101906020018083116105d657829003601f168201915b505050505090506106048282610c66565b5050505050565b60008061062260085430639d150c6360e01b610ea6565b905061066e6040518060400160405280600381526020017f6c617400000000000000000000000000000000000000000000000000000000008152508683610ed79092919063ffffffff16565b6106b86040518060400160405280600381526020017f6c6f6e00000000000000000000000000000000000000000000000000000000008152508583610ed79092919063ffffffff16565b6106e7600760009054906101000a900473ffffffffffffffffffffffffffffffffffffffff1682600954610f0a565b915084600f6000848152602001908152602001600020908051906020019061071092919061167f565b508360106000848152602001908152602001600020908051906020019061073892919061167f565b5082600e600084815260200190815260200160002060006101000a81548173ffffffffffffffffffffffffffffffffffffffff021916908373ffffffffffffffffffffffffffffffffffffffff160217905550509392505050565b601060205280600052604060002060009150905080546107b290611ee8565b80601f01602080910402602001604051908101604052809291908181526020018280546107de90611ee8565b801561082b5780601f106108005761010080835404028352916020019161082b565b820191906000526020600020905b81548152906001019060200180831161080e57829003601f168201915b505050505081565b60065481565b600060607f0000000000000000000000000000000000000000000000000000000000000000600a544261086c9190611f78565b1191509250929050565b600c818154811061088657600080fd5b9060005260206000200160009150905080546108a190611ee8565b80601f01602080910402602001604051908101604052809291908181526020018280546108cd90611ee8565b801561091a5780601f106108ef5761010080835404028352916020019161091a565b820191906000526020600020905b8154815290600101906020018083116108fd57829003601f168201915b505050505081565b600b8290806001815401808255809150506001900390600052602060002001600090919091909150908051906020019061095d92919061167f565b50600c8190806001815401808255809150506001900390600052602060002001600090919091909150908051906020019061099992919061167f565b50600d339080600181540180825580915050600190039060005260206000200160009091909190916101000a81548173ffffffffffffffffffffffffffffffffffffffff021916908373ffffffffffffffffffffffffffffffffffffffff160217905550610a0882823361060b565b505050565b856005600082815260200190815260200160002060009054906101000a900473ffffffffffffffffffffffffffffffffffffffff1673ffffffffffffffffffffffffffffffffffffffff163373ffffffffffffffffffffffffffffffffffffffff1614610aaf576040517f08c379a0000000000000000000000000000000000000000000000000000000008152600401610aa69061201e565b60405180910390fd5b6005600082815260200190815260200160002060006101000a81549073ffffffffffffffffffffffffffffffffffffffff0219169055807f7cc135e0cebb02c3480ae5d74d377283180a2601f8f644edf7987b009316c63a60405160405180910390a2600e600088815260200190815260200160002060009054906101000a900473ffffffffffffffffffffffffffffffffffffffff1673ffffffffffffffffffffffffffffffffffffffff167f66e53834ed3a3eeec84218d6fe78a9efd0f2d18555828035994dc57a3d739f43888888888888604051610b959695949392919061203e565b60405180910390a2600e600088815260200190815260200160002060009054906101000a900473ffffffffffffffffffffffffffffffffffffffff1673ffffffffffffffffffffffffffffffffffffffff167fb297200a913cab14c9a8135b79e90805060b649857c9fc4d6c360e7b026dbcec88600f60008b8152602001908152602001600020601060008c815260200190815260200160002042604051610c409493929190612134565b60405180910390a26001600654610c579190612187565b60068190555050505050505050565b600080610c7d60085430639d150c6360e01b610ea6565b9050610cc96040518060400160405280600381526020017f6c617400000000000000000000000000000000000000000000000000000000008152508583610ed79092919063ffffffff16565b610d136040518060400160405280600381526020017f6c6f6e00000000000000000000000000000000000000000000000000000000008152508483610ed79092919063ffffffff16565b610d42600760009054906101000a900473ffffffffffffffffffffffffffffffffffffffff1682600954610f0a565b9150600b60065481548110610d5a57610d59611f1a565b5b90600052602060002001600f6000848152602001908152602001600020908054610d8390611ee8565b610d8e929190611705565b50600c60065481548110610da557610da4611f1a565b5b9060005260206000200160106000848152602001908152602001600020908054610dce90611ee8565b610dd9929190611705565b50600d60065481548110610df057610def611f1a565b5b9060005260206000200160009054906101000a900473ffffffffffffffffffffffffffffffffffffffff16600e600084815260200190815260200160002060006101000a81548173ffffffffffffffffffffffffffffffffffffffff021916908373ffffffffffffffffffffffffffffffffffffffff1602179055505092915050565b600e6020528060005260406000206000915054906101000a900473ffffffffffffffffffffffffffffffffffffffff1681565b610eae611792565b610eb6611792565b610ecd85858584610f2a909392919063ffffffff16565b9150509392505050565b610eee828460800151610fda90919063ffffffff16565b610f05818460800151610fda90919063ffffffff16565b505050565b6000610f218484846001634042994660e01b610fff565b90509392505050565b610f32611792565b610f428560800151610100611258565b508385600001818152505082856020019073ffffffffffffffffffffffffffffffffffffffff16908173ffffffffffffffffffffffffffffffffffffffff16815250508185604001907bffffffffffffffffffffffffffffffffffffffffffffffffffffffff191690817bffffffffffffffffffffffffffffffffffffffffffffffffffffffff191681525050849050949350505050565b610fe782600383516112c2565b610ffa818361140790919063ffffffff16565b505050565b600030600454604051602001611016929190612296565b604051602081830303815290604052805190602001209050600454856060018181525050856005600083815260200190815260200160002060006101000a81548173ffffffffffffffffffffffffffffffffffffffff021916908373ffffffffffffffffffffffffffffffffffffffff160217905550807fb5e6e01e79f91267dc17b4e6314d5d4d03593d2ceee0fbb452b750bd70ea5af960405160405180910390a2600082600080886000015189602001518a604001518b606001518a8d60800151600001516040516024016110f49897969594939291906122fd565b604051602081830303815290604052907bffffffffffffffffffffffffffffffffffffffffffffffffffffffff19166020820180517bffffffffffffffffffffffffffffffffffffffffffffffffffffffff83818316178352505050509050600260009054906101000a900473ffffffffffffffffffffffffffffffffffffffff1673ffffffffffffffffffffffffffffffffffffffff16634000aea08887846040518463ffffffff1660e01b81526004016111b293929190612382565b6020604051808303816000875af11580156111d1573d6000803e3d6000fd5b505050506040513d601f19601f820116820180604052508101906111f591906123ec565b611234576040517f08c379a000000000000000000000000000000000000000000000000000000000815260040161122b9061248b565b60405180910390fd5b6001600460008282546112479190612187565b925050819055505095945050505050565b6112606117ff565b600060208361126f91906124da565b1461129b5760208261128191906124da565b602061128d9190611f78565b826112989190612187565b91505b81836020018181525050604051808452600081528281016020016040525082905092915050565b601781116112ef576112e98160058460ff16901b60ff16178461142990919063ffffffff16565b50611402565b60ff811161133157611314601860058460ff16901b178461142990919063ffffffff16565b5061132b816001856114499092919063ffffffff16565b50611401565b61ffff811161137457611357601960058460ff16901b178461142990919063ffffffff16565b5061136e816002856114499092919063ffffffff16565b50611400565b63ffffffff81116113b95761139c601a60058460ff16901b178461142990919063ffffffff16565b506113b3816004856114499092919063ffffffff16565b506113ff565b67ffffffffffffffff81116113fe576113e5601b60058460ff16901b178461142990919063ffffffff16565b506113fc816008856114499092919063ffffffff16565b505b5b5b5b5b505050565b61140f6117ff565b6114218384600001515184855161146b565b905092915050565b6114316117ff565b611441838460000151518461155a565b905092915050565b6114516117ff565b6114628485600001515185856115b1565b90509392505050565b6114736117ff565b825182111561148157600080fd5b846020015182856114929190612187565b11156114c7576114c68560026114b7886020015188876114b29190612187565b61163f565b6114c1919061250b565b61165b565b5b6000808651805187602083010193508088870111156114e65787860182525b60208701925050505b6020841061152d57805182526020826115089190612187565b91506020816115179190612187565b90506020846115269190611f78565b93506114ef565b60006001856020036101000a03905080198251168184511681811785525050508692505050949350505050565b6115626117ff565b83602001518310611588576115878460028660200151611582919061250b565b61165b565b5b83518051602085830101848153818614156115a4576001820183525b5050508390509392505050565b6115b96117ff565b846020015184836115ca9190612187565b11156115f2576115f185600286856115e29190612187565b6115ec919061250b565b61165b565b5b60006001836101006116049190612698565b61160e9190611f78565b905085518386820101858319825116178152815185880111156116315784870182525b505085915050949350505050565b60008183111561165157829050611655565b8190505b92915050565b60008260000151905061166e8383611258565b506116798382611407565b50505050565b82805461168b90611ee8565b90600052602060002090601f0160209004810192826116ad57600085556116f4565b82601f106116c657805160ff19168380011785556116f4565b828001600101855582156116f4579182015b828111156116f35782518255916020019190600101906116d8565b5b5090506117019190611819565b5090565b82805461171190611ee8565b90600052602060002090601f0160209004810192826117335760008555611781565b82601f106117445780548555611781565b8280016001018555821561178157600052602060002091601f016020900482015b82811115611780578254825591600101919060010190611765565b5b50905061178e9190611819565b5090565b6040518060a0016040528060008019168152602001600073ffffffffffffffffffffffffffffffffffffffff16815260200160007bffffffffffffffffffffffffffffffffffffffffffffffffffffffff19168152602001600081526020016117f96117ff565b81525090565b604051806040016040528060608152602001600081525090565b5b8082111561183257600081600090555060010161181a565b5090565b6000604051905090565b600080fd5b600080fd5b6000819050919050565b61185d8161184a565b811461186857600080fd5b50565b60008135905061187a81611854565b92915050565b60006020828403121561189657611895611840565b5b60006118a48482850161186b565b91505092915050565b600081519050919050565b600082825260208201905092915050565b60005b838110156118e75780820151818401526020810190506118cc565b838111156118f6576000848401525b50505050565b6000601f19601f8301169050919050565b6000611918826118ad565b61192281856118b8565b93506119328185602086016118c9565b61193b816118fc565b840191505092915050565b60006020820190508181036000830152611960818461190d565b905092915050565b6000819050919050565b61197b81611968565b811461198657600080fd5b50565b60008135905061199881611972565b92915050565b6000602082840312156119b4576119b3611840565b5b60006119c284828501611989565b91505092915050565b600073ffffffffffffffffffffffffffffffffffffffff82169050919050565b60006119f6826119cb565b9050919050565b611a06816119eb565b82525050565b6000602082019050611a2160008301846119fd565b92915050565b600080fd5b600080fd5b600080fd5b60008083601f840112611a4c57611a4b611a27565b5b8235905067ffffffffffffffff811115611a6957611a68611a2c565b5b602083019150836001820283011115611a8557611a84611a31565b5b9250929050565b60008060208385031215611aa357611aa2611840565b5b600083013567ffffffffffffffff811115611ac157611ac0611845565b5b611acd85828601611a36565b92509250509250929050565b600080fd5b7f4e487b7100000000000000000000000000000000000000000000000000000000600052604160045260246000fd5b611b16826118fc565b810181811067ffffffffffffffff82111715611b3557611b34611ade565b5b80604052505050565b6000611b48611836565b9050611b548282611b0d565b919050565b600067ffffffffffffffff821115611b7457611b73611ade565b5b611b7d826118fc565b9050602081019050919050565b82818337600083830152505050565b6000611bac611ba784611b59565b611b3e565b905082815260208101848484011115611bc857611bc7611ad9565b5b611bd3848285611b8a565b509392505050565b600082601f830112611bf057611bef611a27565b5b8135611c00848260208601611b99565b91505092915050565b611c12816119eb565b8114611c1d57600080fd5b50565b600081359050611c2f81611c09565b92915050565b600080600060608486031215611c4e57611c4d611840565b5b600084013567ffffffffffffffff811115611c6c57611c6b611845565b5b611c7886828701611bdb565b935050602084013567ffffffffffffffff811115611c9957611c98611845565b5b611ca586828701611bdb565b9250506040611cb686828701611c20565b9150509250925092565b611cc98161184a565b82525050565b6000602082019050611ce46000830184611cc0565b92915050565b611cf381611968565b82525050565b6000602082019050611d0e6000830184611cea565b92915050565b60008115159050919050565b611d2981611d14565b82525050565b600081519050919050565b600082825260208201905092915050565b6000611d5682611d2f565b611d608185611d3a565b9350611d708185602086016118c9565b611d79816118fc565b840191505092915050565b6000604082019050611d996000830185611d20565b8181036020830152611dab8184611d4b565b90509392505050565b60008060408385031215611dcb57611dca611840565b5b600083013567ffffffffffffffff811115611de957611de8611845565b5b611df585828601611bdb565b925050602083013567ffffffffffffffff811115611e1657611e15611845565b5b611e2285828601611bdb565b9150509250929050565b60008060008060008060c08789031215611e4957611e48611840565b5b6000611e5789828a0161186b565b9650506020611e6889828a01611989565b9550506040611e7989828a01611989565b9450506060611e8a89828a01611989565b9350506080611e9b89828a01611989565b92505060a0611eac89828a01611989565b9150509295509295509295565b7f4e487b7100000000000000000000000000000000000000000000000000000000600052602260045260246000fd5b60006002820490506001821680611f0057607f821691505b60208210811415611f1457611f13611eb9565b5b50919050565b7f4e487b7100000000000000000000000000000000000000000000000000000000600052603260045260246000fd5b7f4e487b7100000000000000000000000000000000000000000000000000000000600052601160045260246000fd5b6000611f8382611968565b9150611f8e83611968565b925082821015611fa157611fa0611f49565b5b828203905092915050565b7f536f75726365206d75737420626520746865206f7261636c65206f662074686560008201527f2072657175657374000000000000000000000000000000000000000000000000602082015250565b60006120086028836118b8565b915061201382611fac565b604082019050919050565b6000602082019050818103600083015261203781611ffb565b9050919050565b600060c0820190506120536000830189611cc0565b6120606020830188611cea565b61206d6040830187611cea565b61207a6060830186611cea565b6120876080830185611cea565b61209460a0830184611cea565b979650505050505050565b60008190508160005260206000209050919050565b600081546120c181611ee8565b6120cb81866118b8565b945060018216600081146120e657600181146120f85761212b565b60ff198316865260208601935061212b565b6121018561209f565b60005b8381101561212357815481890152600182019150602081019050612104565b808801955050505b50505092915050565b60006080820190506121496000830187611cc0565b818103602083015261215b81866120b4565b9050818103604083015261216f81856120b4565b905061217e6060830184611cea565b95945050505050565b600061219282611968565b915061219d83611968565b9250827fffffffffffffffffffffffffffffffffffffffffffffffffffffffffffffffff038211156121d2576121d1611f49565b5b828201905092915050565b6000819050919050565b60006122026121fd6121f8846119cb565b6121dd565b6119cb565b9050919050565b6000612214826121e7565b9050919050565b600061222682612209565b9050919050565b60008160601b9050919050565b60006122458261222d565b9050919050565b60006122578261223a565b9050919050565b61226f61226a8261221b565b61224c565b82525050565b6000819050919050565b61229061228b82611968565b612275565b82525050565b60006122a2828561225e565b6014820191506122b2828461227f565b6020820191508190509392505050565b60007fffffffff0000000000000000000000000000000000000000000000000000000082169050919050565b6122f7816122c2565b82525050565b600061010082019050612313600083018b6119fd565b612320602083018a611cea565b61232d6040830189611cc0565b61233a60608301886119fd565b61234760808301876122ee565b61235460a0830186611cea565b61236160c0830185611cea565b81810360e08301526123738184611d4b565b90509998505050505050505050565b600060608201905061239760008301866119fd565b6123a46020830185611cea565b81810360408301526123b68184611d4b565b9050949350505050565b6123c981611d14565b81146123d457600080fd5b50565b6000815190506123e6816123c0565b92915050565b60006020828403121561240257612401611840565b5b6000612410848285016123d7565b91505092915050565b7f756e61626c6520746f207472616e73666572416e6443616c6c20746f206f726160008201527f636c650000000000000000000000000000000000000000000000000000000000602082015250565b60006124756023836118b8565b915061248082612419565b604082019050919050565b600060208201905081810360008301526124a481612468565b9050919050565b7f4e487b7100000000000000000000000000000000000000000000000000000000600052601260045260246000fd5b60006124e582611968565b91506124f083611968565b925082612500576124ff6124ab565b5b828206905092915050565b600061251682611968565b915061252183611968565b9250817fffffffffffffffffffffffffffffffffffffffffffffffffffffffffffffffff048311821515161561255a57612559611f49565b5b828202905092915050565b60008160011c9050919050565b6000808291508390505b60018511156125bc5780860481111561259857612597611f49565b5b60018516156125a75780820291505b80810290506125b585612565565b945061257c565b94509492505050565b6000826125d55760019050612691565b816125e35760009050612691565b81600181146125f9576002811461260357612632565b6001915050612691565b60ff84111561261557612614611f49565b5b8360020a91508482111561262c5761262b611f49565b5b50612691565b5060208310610133831016604e8410600b84101617156126675782820a90508381111561266257612661611f49565b5b612691565b6126748484846001612572565b9250905081840481111561268b5761268a611f49565b5b81810290505b9392505050565b60006126a382611968565b91506126ae83611968565b92506126db7fffffffffffffffffffffffffffffffffffffffffffffffffffffffffffffffff84846125c5565b90509291505056fea2646970667358221220bab6867eafb7350a3c24c01216a0d79b5d0c449d7d9e9368697ee81ef16ede8b64736f6c634300080a0033",
  "immutableReferences": {
    "2134": [
      {
        "length": 32,
        "start": 2111
      }
    ]
  },
  "source": "// SPDX-License-Identifier: MIT\npragma solidity ^0.8.7;\n\nimport \"@chainlink/contracts/src/v0.8/ChainlinkClient.sol\";\nimport \"@chainlink/contracts/src/v0.8/interfaces/KeeperCompatibleInterface.sol\";\n\ncontract PollutionDataContract is ChainlinkClient, KeeperCompatibleInterface {\n    using Chainlink for Chainlink.Request;\n\n    uint256 public counter;\n\n    address private oracle;\n    bytes32 private jobId;\n    uint256 private fee;\n\n    uint256 private immutable interval;\n    uint256 private lastTimeStamp;\n\n    string[] public latArray;\n    string[] public lonArray;\n    address[] public creatorArray;\n\n    mapping(bytes32 => address) public toAddresses;\n    mapping(bytes32 => string) public toLat;\n    mapping(bytes32 => string) public toLon;\n\n    constructor() {\n        setPublicChainlinkToken();\n        oracle = 0xd57018342B19Bc74dD6f5Fa8B73c934694b3aC10;\n        jobId = \"c7ef2e55f68e45b4b98219b8f2854189\";\n        fee = 0;\n        interval = 1 minutes;\n        lastTimeStamp = block.timestamp;\n    }\n\n    //function -> add to array and requestMultipleParameters\n    function addLocationDataAndFetchPollutionData(\n        string memory _lat,\n        string memory _lon\n    ) public {\n        latArray.push(_lat);\n        lonArray.push(_lon);\n        creatorArray.push(msg.sender);\n        requestMultipleParametersFromUser(_lat, _lon, msg.sender);\n    }\n\n    function checkUpkeep(\n        bytes calldata /* checkData */\n    )\n        external\n        override\n        returns (\n            bool upkeepNeeded,\n            bytes memory /* performData */\n        )\n    {\n        upkeepNeeded = (block.timestamp - lastTimeStamp) > interval;\n    }\n\n    function performUpkeep(\n        bytes calldata /* performData */\n    ) external override {\n        lastTimeStamp = block.timestamp;\n\n        if (counter >= creatorArray.length) {\n            counter = 0;\n        }\n\n        string memory _lat = latArray[counter];\n        string memory _lon = lonArray[counter];\n\n        requestMultipleParameters(_lat, _lon);\n    }\n\n    function requestMultipleParameters(string memory _lat, string memory _lon)\n        public\n        returns (bytes32 requestId)\n    {\n        //logic problem in conditional\n        // if (counter >= creatorArray.length) {\n        //     counter = 0;\n        // } else {\n        //     counter = counter + 1;\n        // }\n\n        Chainlink.Request memory req = buildChainlinkRequest(\n            jobId,\n            address(this),\n            this.fulfillMultipleParameters.selector\n        );\n\n        req.add(\"lat\", _lat);\n        req.add(\"lon\", _lon);\n\n        // Sends the request\n        requestId = sendChainlinkRequestTo(oracle, req, fee);\n\n        toLat[requestId] = latArray[counter];\n        toLon[requestId] = lonArray[counter];\n        toAddresses[requestId] = creatorArray[counter];\n    }\n\n    function requestMultipleParametersFromUser(\n        string memory _lat,\n        string memory _lon,\n        address _sender\n    ) public returns (bytes32 requestId) {\n        Chainlink.Request memory req = buildChainlinkRequest(\n            jobId,\n            address(this),\n            this.fulfillMultipleParameters.selector\n        );\n\n        req.add(\"lat\", _lat);\n        req.add(\"lon\", _lon);\n\n        // Sends the request\n        requestId = sendChainlinkRequestTo(oracle, req, fee);\n        toLat[requestId] = _lat;\n        toLon[requestId] = _lon;\n        toAddresses[requestId] = _sender;\n    }\n\n    event RequestMultipleFulfilled(\n        bytes32 requestId_,\n        uint256 aqi_,\n        uint256 no2_,\n        uint256 o3_,\n        uint256 pm10_,\n        uint256 pm2_5_,\n        address indexed requester_\n    );\n\n    event coordinatesAndAddress(\n        bytes32 requestId_,\n        string lat_,\n        string lon_,\n        uint256 timestamp_,\n        address indexed requester_\n    );\n\n    function fulfillMultipleParameters(\n        bytes32 requestId,\n        uint256 aqi_response,\n        uint256 no2_response,\n        uint256 o3_response,\n        uint256 pm10_response,\n        uint256 pm2_5_response\n    ) public recordChainlinkFulfillment(requestId) {\n        emit RequestMultipleFulfilled(\n            requestId,\n            aqi_response,\n            no2_response,\n            o3_response,\n            pm10_response,\n            pm2_5_response,\n            toAddresses[requestId]\n        );\n        emit coordinatesAndAddress(\n            requestId,\n            toLat[requestId],\n            toLon[requestId],\n            block.timestamp,\n            toAddresses[requestId]\n        );\n\n        //GTAX minted on some condition\n        //if(no2 > 200) { mint gtax}\n\n        counter = counter + 1;\n    }\n\n    // function withdrawLink() external {} - Implement a withdraw function to avoid locking your LINK in the contract\n}\n",
  "sourcePath": "/Users/np/Desktop/Chainlink hackathon/ChainlinkProject/net.zero/netZeroReactApp/contracts/PollutionDataContract.sol",
  "compiler": {
    "name": "solc",
    "version": "0.8.10+commit.fc410830.Emscripten.clang"
  },
  "schemaVersion": "3.4.3",
  "updatedAt": "2021-11-22T23:18:13.327Z",
  "networkType": "ethereum",
  "devdoc": {
    "kind": "dev",
    "methods": {},
    "version": 1
  },
  "userdoc": {
    "kind": "user",
    "methods": {},
    "version": 1
  }
}