{
  "contractName": "PollutionDataContract",
  "abi": [
    {
      "inputs": [],
      "stateMutability": "nonpayable",
      "type": "constructor"
    },
    {
      "anonymous": false,
      "inputs": [
        {
          "indexed": true,
          "internalType": "bytes32",
          "name": "id",
          "type": "bytes32"
        }
      ],
      "name": "ChainlinkCancelled",
      "type": "event"
    },
    {
      "anonymous": false,
      "inputs": [
        {
          "indexed": true,
          "internalType": "bytes32",
          "name": "id",
          "type": "bytes32"
        }
      ],
      "name": "ChainlinkFulfilled",
      "type": "event"
    },
    {
      "anonymous": false,
      "inputs": [
        {
          "indexed": true,
          "internalType": "bytes32",
          "name": "id",
          "type": "bytes32"
        }
      ],
      "name": "ChainlinkRequested",
      "type": "event"
    },
    {
      "anonymous": false,
      "inputs": [
        {
          "indexed": false,
          "internalType": "bytes32",
          "name": "requestId_",
          "type": "bytes32"
        },
        {
          "indexed": false,
          "internalType": "uint256",
          "name": "aqi_",
          "type": "uint256"
        },
        {
          "indexed": false,
          "internalType": "uint256",
          "name": "no2_",
          "type": "uint256"
        },
        {
          "indexed": false,
          "internalType": "uint256",
          "name": "o3_",
          "type": "uint256"
        },
        {
          "indexed": false,
          "internalType": "uint256",
          "name": "pm10_",
          "type": "uint256"
        },
        {
          "indexed": false,
          "internalType": "uint256",
          "name": "pm2_5_",
          "type": "uint256"
        },
        {
          "indexed": true,
          "internalType": "address",
          "name": "requester_",
          "type": "address"
        }
      ],
      "name": "RequestMultipleFulfilled",
      "type": "event"
    },
    {
      "anonymous": false,
      "inputs": [
        {
          "indexed": false,
          "internalType": "bytes32",
          "name": "requestId_",
          "type": "bytes32"
        },
        {
          "indexed": false,
          "internalType": "string",
          "name": "lat_",
          "type": "string"
        },
        {
          "indexed": false,
          "internalType": "string",
          "name": "lon_",
          "type": "string"
        },
        {
          "indexed": false,
          "internalType": "uint256",
          "name": "timestamp_",
          "type": "uint256"
        },
        {
          "indexed": true,
          "internalType": "address",
          "name": "requester_",
          "type": "address"
        }
      ],
      "name": "coordinatesAndAddress",
      "type": "event"
    },
    {
      "inputs": [],
      "name": "counter",
      "outputs": [
        {
          "internalType": "uint256",
          "name": "",
          "type": "uint256"
        }
      ],
      "stateMutability": "view",
      "type": "function",
      "constant": true
    },
    {
      "inputs": [
        {
          "internalType": "bytes32",
          "name": "",
          "type": "bytes32"
        }
      ],
      "name": "toAddresses",
      "outputs": [
        {
          "internalType": "address",
          "name": "",
          "type": "address"
        }
      ],
      "stateMutability": "view",
      "type": "function",
      "constant": true
    },
    {
      "inputs": [
        {
          "internalType": "bytes32",
          "name": "",
          "type": "bytes32"
        }
      ],
      "name": "toLat",
      "outputs": [
        {
          "internalType": "string",
          "name": "",
          "type": "string"
        }
      ],
      "stateMutability": "view",
      "type": "function",
      "constant": true
    },
    {
      "inputs": [
        {
          "internalType": "bytes32",
          "name": "",
          "type": "bytes32"
        }
      ],
      "name": "toLon",
      "outputs": [
        {
          "internalType": "string",
          "name": "",
          "type": "string"
        }
      ],
      "stateMutability": "view",
      "type": "function",
      "constant": true
    },
    {
      "inputs": [
        {
          "internalType": "string",
          "name": "_lat",
          "type": "string"
        },
        {
          "internalType": "string",
          "name": "_lon",
          "type": "string"
        }
      ],
      "name": "addLocationDataAndFetchPollutionData",
      "outputs": [],
      "stateMutability": "nonpayable",
      "type": "function"
    },
    {
      "inputs": [
        {
          "internalType": "bytes",
          "name": "",
          "type": "bytes"
        }
      ],
      "name": "checkUpkeep",
      "outputs": [
        {
          "internalType": "bool",
          "name": "upkeepNeeded",
          "type": "bool"
        },
        {
          "internalType": "bytes",
          "name": "",
          "type": "bytes"
        }
      ],
      "stateMutability": "nonpayable",
      "type": "function"
    },
    {
      "inputs": [
        {
          "internalType": "bytes",
          "name": "",
          "type": "bytes"
        }
      ],
      "name": "performUpkeep",
      "outputs": [],
      "stateMutability": "nonpayable",
      "type": "function"
    },
    {
      "inputs": [
        {
          "internalType": "string",
          "name": "_lat",
          "type": "string"
        },
        {
          "internalType": "string",
          "name": "_lon",
          "type": "string"
        }
      ],
      "name": "requestMultipleParameters",
      "outputs": [
        {
          "internalType": "bytes32",
          "name": "requestId",
          "type": "bytes32"
        }
      ],
      "stateMutability": "nonpayable",
      "type": "function"
    },
    {
      "inputs": [
        {
          "internalType": "string",
          "name": "_lat",
          "type": "string"
        },
        {
          "internalType": "string",
          "name": "_lon",
          "type": "string"
        },
        {
          "internalType": "address",
          "name": "_sender",
          "type": "address"
        }
      ],
      "name": "requestMultipleParametersFromUser",
      "outputs": [
        {
          "internalType": "bytes32",
          "name": "requestId",
          "type": "bytes32"
        }
      ],
      "stateMutability": "nonpayable",
      "type": "function"
    },
    {
      "inputs": [
        {
          "internalType": "bytes32",
          "name": "requestId",
          "type": "bytes32"
        },
        {
          "internalType": "uint256",
          "name": "aqi_response",
          "type": "uint256"
        },
        {
          "internalType": "uint256",
          "name": "no2_response",
          "type": "uint256"
        },
        {
          "internalType": "uint256",
          "name": "o3_response",
          "type": "uint256"
        },
        {
          "internalType": "uint256",
          "name": "pm10_response",
          "type": "uint256"
        },
        {
          "internalType": "uint256",
          "name": "pm2_5_response",
          "type": "uint256"
        }
      ],
      "name": "fulfillMultipleParameters",
      "outputs": [],
      "stateMutability": "nonpayable",
      "type": "function"
    }
  ],
  "bytecode": "0x60a060405260016004553480156200001657600080fd5b5062000027620000c260201b60201c565b73d57018342b19bc74dd6f5fa8b73c934694b3ac10600760006101000a81548173ffffffffffffffffffffffffffffffffffffffff021916908373ffffffffffffffffffffffffffffffffffffffff1602179055507f6337656632653535663638653435623462393832313962386632383534313839600881905550600060098190555061012c6080818152505042600a819055506200023a565b6200015873c89bd4e1632d3a43cb03aaad5262cbe4038bc57173ffffffffffffffffffffffffffffffffffffffff166338cc48316040518163ffffffff1660e01b8152600401602060405180830381865afa15801562000126573d6000803e3d6000fd5b505050506040513d601f19601f820116820180604052508101906200014c919062000208565b6200015a60201b60201c565b565b80600260006101000a81548173ffffffffffffffffffffffffffffffffffffffff021916908373ffffffffffffffffffffffffffffffffffffffff16021790555050565b600080fd5b600073ffffffffffffffffffffffffffffffffffffffff82169050919050565b6000620001d082620001a3565b9050919050565b620001e281620001c3565b8114620001ee57600080fd5b50565b6000815190506200020281620001d7565b92915050565b6000602082840312156200022157620002206200019e565b5b60006200023184828501620001f1565b91505092915050565b60805161249962000256600039600061067c01526124996000f3fe608060405234801561001057600080fd5b506004361061009e5760003560e01c80636e04ff0d116100665780636e04ff0d1461016d57806396102b191461019e5780639d150c63146101ba578063c0b05bd8146101d6578063fac31484146102065761009e565b80632097f08d146100a35780634585e33b146100d357806359717033146100ef5780635bb381601461011f57806361bc221a1461014f575b600080fd5b6100bd60048036038101906100b8919061162d565b610236565b6040516100ca91906116f3565b60405180910390f35b6100ed60048036038101906100e8919061177a565b6102d6565b005b61010960048036038101906101049190611955565b610448565b60405161011691906119ef565b60405180910390f35b6101396004803603810190610134919061162d565b6105d0565b60405161014691906116f3565b60405180910390f35b610157610670565b6040516101649190611a23565b60405180910390f35b6101876004803603810190610182919061177a565b610676565b604051610195929190611aae565b60405180910390f35b6101b860048036038101906101b39190611ade565b6106b3565b005b6101d460048036038101906101cf9190611b82565b61079e565b005b6101f060048036038101906101eb9190611ade565b6109e2565b6040516101fd91906119ef565b60405180910390f35b610220600480360381019061021b919061162d565b610c20565b60405161022d9190611c1e565b60405180910390f35b600f602052806000526040600020600091509050805461025590611c68565b80601f016020809104026020016040519081016040528092919081815260200182805461028190611c68565b80156102ce5780601f106102a3576101008083540402835291602001916102ce565b820191906000526020600020905b8154815290600101906020018083116102b157829003601f168201915b505050505081565b42600a819055506000600b600654815481106102f5576102f4611c9a565b5b90600052602060002001805461030a90611c68565b80601f016020809104026020016040519081016040528092919081815260200182805461033690611c68565b80156103835780601f1061035857610100808354040283529160200191610383565b820191906000526020600020905b81548152906001019060200180831161036657829003601f168201915b505050505090506000600c600654815481106103a2576103a1611c9a565b5b9060005260206000200180546103b790611c68565b80601f01602080910402602001604051908101604052809291908181526020018280546103e390611c68565b80156104305780601f1061040557610100808354040283529160200191610430565b820191906000526020600020905b81548152906001019060200180831161041357829003601f168201915b5050505050905061044182826109e2565b5050505050565b60008061045f60085430639d150c6360e01b610c53565b90506104ab6040518060400160405280600381526020017f6c617400000000000000000000000000000000000000000000000000000000008152508683610c849092919063ffffffff16565b6104f56040518060400160405280600381526020017f6c6f6e00000000000000000000000000000000000000000000000000000000008152508583610c849092919063ffffffff16565b610524600760009054906101000a900473ffffffffffffffffffffffffffffffffffffffff1682600954610cb7565b915084600f6000848152602001908152602001600020908051906020019061054d92919061142c565b508360106000848152602001908152602001600020908051906020019061057592919061142c565b5082600e600084815260200190815260200160002060006101000a81548173ffffffffffffffffffffffffffffffffffffffff021916908373ffffffffffffffffffffffffffffffffffffffff160217905550509392505050565b601060205280600052604060002060009150905080546105ef90611c68565b80601f016020809104026020016040519081016040528092919081815260200182805461061b90611c68565b80156106685780601f1061063d57610100808354040283529160200191610668565b820191906000526020600020905b81548152906001019060200180831161064b57829003601f168201915b505050505081565b60065481565b600060607f0000000000000000000000000000000000000000000000000000000000000000600a54426106a99190611cf8565b1191509250929050565b600b829080600181540180825580915050600190039060005260206000200160009091909190915090805190602001906106ee92919061142c565b50600c8190806001815401808255809150506001900390600052602060002001600090919091909150908051906020019061072a92919061142c565b50600d339080600181540180825580915050600190039060005260206000200160009091909190916101000a81548173ffffffffffffffffffffffffffffffffffffffff021916908373ffffffffffffffffffffffffffffffffffffffff160217905550610799828233610448565b505050565b856005600082815260200190815260200160002060009054906101000a900473ffffffffffffffffffffffffffffffffffffffff1673ffffffffffffffffffffffffffffffffffffffff163373ffffffffffffffffffffffffffffffffffffffff1614610840576040517f08c379a000000000000000000000000000000000000000000000000000000000815260040161083790611d9e565b60405180910390fd5b6005600082815260200190815260200160002060006101000a81549073ffffffffffffffffffffffffffffffffffffffff0219169055807f7cc135e0cebb02c3480ae5d74d377283180a2601f8f644edf7987b009316c63a60405160405180910390a2600e600088815260200190815260200160002060009054906101000a900473ffffffffffffffffffffffffffffffffffffffff1673ffffffffffffffffffffffffffffffffffffffff167f66e53834ed3a3eeec84218d6fe78a9efd0f2d18555828035994dc57a3d739f4388888888888860405161092696959493929190611dbe565b60405180910390a2600e600088815260200190815260200160002060009054906101000a900473ffffffffffffffffffffffffffffffffffffffff1673ffffffffffffffffffffffffffffffffffffffff167fb297200a913cab14c9a8135b79e90805060b649857c9fc4d6c360e7b026dbcec88600f60008b8152602001908152602001600020601060008c8152602001908152602001600020426040516109d19493929190611eb4565b60405180910390a250505050505050565b6000806109f960085430639d150c6360e01b610c53565b9050610a456040518060400160405280600381526020017f6c617400000000000000000000000000000000000000000000000000000000008152508583610c849092919063ffffffff16565b610a8f6040518060400160405280600381526020017f6c6f6e00000000000000000000000000000000000000000000000000000000008152508483610c849092919063ffffffff16565b610abe600760009054906101000a900473ffffffffffffffffffffffffffffffffffffffff1682600954610cb7565b9150600b60065481548110610ad657610ad5611c9a565b5b90600052602060002001600f6000848152602001908152602001600020908054610aff90611c68565b610b0a9291906114b2565b50600c60065481548110610b2157610b20611c9a565b5b9060005260206000200160106000848152602001908152602001600020908054610b4a90611c68565b610b559291906114b2565b50600d60065481548110610b6c57610b6b611c9a565b5b9060005260206000200160009054906101000a900473ffffffffffffffffffffffffffffffffffffffff16600e600084815260200190815260200160002060006101000a81548173ffffffffffffffffffffffffffffffffffffffff021916908373ffffffffffffffffffffffffffffffffffffffff160217905550600d8054905060065410610c03576000600681905550610c19565b6001600654610c129190611f07565b6006819055505b5092915050565b600e6020528060005260406000206000915054906101000a900473ffffffffffffffffffffffffffffffffffffffff1681565b610c5b61153f565b610c6361153f565b610c7a85858584610cd7909392919063ffffffff16565b9150509392505050565b610c9b828460800151610d8790919063ffffffff16565b610cb2818460800151610d8790919063ffffffff16565b505050565b6000610cce8484846001634042994660e01b610dac565b90509392505050565b610cdf61153f565b610cef8560800151610100611005565b508385600001818152505082856020019073ffffffffffffffffffffffffffffffffffffffff16908173ffffffffffffffffffffffffffffffffffffffff16815250508185604001907bffffffffffffffffffffffffffffffffffffffffffffffffffffffff191690817bffffffffffffffffffffffffffffffffffffffffffffffffffffffff191681525050849050949350505050565b610d94826003835161106f565b610da781836111b490919063ffffffff16565b505050565b600030600454604051602001610dc3929190612016565b604051602081830303815290604052805190602001209050600454856060018181525050856005600083815260200190815260200160002060006101000a81548173ffffffffffffffffffffffffffffffffffffffff021916908373ffffffffffffffffffffffffffffffffffffffff160217905550807fb5e6e01e79f91267dc17b4e6314d5d4d03593d2ceee0fbb452b750bd70ea5af960405160405180910390a2600082600080886000015189602001518a604001518b606001518a8d6080015160000151604051602401610ea198979695949392919061207d565b604051602081830303815290604052907bffffffffffffffffffffffffffffffffffffffffffffffffffffffff19166020820180517bffffffffffffffffffffffffffffffffffffffffffffffffffffffff83818316178352505050509050600260009054906101000a900473ffffffffffffffffffffffffffffffffffffffff1673ffffffffffffffffffffffffffffffffffffffff16634000aea08887846040518463ffffffff1660e01b8152600401610f5f93929190612102565b6020604051808303816000875af1158015610f7e573d6000803e3d6000fd5b505050506040513d601f19601f82011682018060405250810190610fa2919061216c565b610fe1576040517f08c379a0000000000000000000000000000000000000000000000000000000008152600401610fd89061220b565b60405180910390fd5b600160046000828254610ff49190611f07565b925050819055505095945050505050565b61100d6115ac565b600060208361101c919061225a565b146110485760208261102e919061225a565b602061103a9190611cf8565b826110459190611f07565b91505b81836020018181525050604051808452600081528281016020016040525082905092915050565b6017811161109c576110968160058460ff16901b60ff1617846111d690919063ffffffff16565b506111af565b60ff81116110de576110c1601860058460ff16901b17846111d690919063ffffffff16565b506110d8816001856111f69092919063ffffffff16565b506111ae565b61ffff811161112157611104601960058460ff16901b17846111d690919063ffffffff16565b5061111b816002856111f69092919063ffffffff16565b506111ad565b63ffffffff811161116657611149601a60058460ff16901b17846111d690919063ffffffff16565b50611160816004856111f69092919063ffffffff16565b506111ac565b67ffffffffffffffff81116111ab57611192601b60058460ff16901b17846111d690919063ffffffff16565b506111a9816008856111f69092919063ffffffff16565b505b5b5b5b5b505050565b6111bc6115ac565b6111ce83846000015151848551611218565b905092915050565b6111de6115ac565b6111ee8384600001515184611307565b905092915050565b6111fe6115ac565b61120f84856000015151858561135e565b90509392505050565b6112206115ac565b825182111561122e57600080fd5b8460200151828561123f9190611f07565b1115611274576112738560026112648860200151888761125f9190611f07565b6113ec565b61126e919061228b565b611408565b5b6000808651805187602083010193508088870111156112935787860182525b60208701925050505b602084106112da57805182526020826112b59190611f07565b91506020816112c49190611f07565b90506020846112d39190611cf8565b935061129c565b60006001856020036101000a03905080198251168184511681811785525050508692505050949350505050565b61130f6115ac565b8360200151831061133557611334846002866020015161132f919061228b565b611408565b5b8351805160208583010184815381861415611351576001820183525b5050508390509392505050565b6113666115ac565b846020015184836113779190611f07565b111561139f5761139e856002868561138f9190611f07565b611399919061228b565b611408565b5b60006001836101006113b19190612418565b6113bb9190611cf8565b905085518386820101858319825116178152815185880111156113de5784870182525b505085915050949350505050565b6000818311156113fe57829050611402565b8190505b92915050565b60008260000151905061141b8383611005565b5061142683826111b4565b50505050565b82805461143890611c68565b90600052602060002090601f01602090048101928261145a57600085556114a1565b82601f1061147357805160ff19168380011785556114a1565b828001600101855582156114a1579182015b828111156114a0578251825591602001919060010190611485565b5b5090506114ae91906115c6565b5090565b8280546114be90611c68565b90600052602060002090601f0160209004810192826114e0576000855561152e565b82601f106114f1578054855561152e565b8280016001018555821561152e57600052602060002091601f016020900482015b8281111561152d578254825591600101919060010190611512565b5b50905061153b91906115c6565b5090565b6040518060a0016040528060008019168152602001600073ffffffffffffffffffffffffffffffffffffffff16815260200160007bffffffffffffffffffffffffffffffffffffffffffffffffffffffff19168152602001600081526020016115a66115ac565b81525090565b604051806040016040528060608152602001600081525090565b5b808211156115df5760008160009055506001016115c7565b5090565b6000604051905090565b600080fd5b600080fd5b6000819050919050565b61160a816115f7565b811461161557600080fd5b50565b60008135905061162781611601565b92915050565b600060208284031215611643576116426115ed565b5b600061165184828501611618565b91505092915050565b600081519050919050565b600082825260208201905092915050565b60005b83811015611694578082015181840152602081019050611679565b838111156116a3576000848401525b50505050565b6000601f19601f8301169050919050565b60006116c58261165a565b6116cf8185611665565b93506116df818560208601611676565b6116e8816116a9565b840191505092915050565b6000602082019050818103600083015261170d81846116ba565b905092915050565b600080fd5b600080fd5b600080fd5b60008083601f84011261173a57611739611715565b5b8235905067ffffffffffffffff8111156117575761175661171a565b5b6020830191508360018202830111156117735761177261171f565b5b9250929050565b60008060208385031215611791576117906115ed565b5b600083013567ffffffffffffffff8111156117af576117ae6115f2565b5b6117bb85828601611724565b92509250509250929050565b600080fd5b7f4e487b7100000000000000000000000000000000000000000000000000000000600052604160045260246000fd5b611804826116a9565b810181811067ffffffffffffffff82111715611823576118226117cc565b5b80604052505050565b60006118366115e3565b905061184282826117fb565b919050565b600067ffffffffffffffff821115611862576118616117cc565b5b61186b826116a9565b9050602081019050919050565b82818337600083830152505050565b600061189a61189584611847565b61182c565b9050828152602081018484840111156118b6576118b56117c7565b5b6118c1848285611878565b509392505050565b600082601f8301126118de576118dd611715565b5b81356118ee848260208601611887565b91505092915050565b600073ffffffffffffffffffffffffffffffffffffffff82169050919050565b6000611922826118f7565b9050919050565b61193281611917565b811461193d57600080fd5b50565b60008135905061194f81611929565b92915050565b60008060006060848603121561196e5761196d6115ed565b5b600084013567ffffffffffffffff81111561198c5761198b6115f2565b5b611998868287016118c9565b935050602084013567ffffffffffffffff8111156119b9576119b86115f2565b5b6119c5868287016118c9565b92505060406119d686828701611940565b9150509250925092565b6119e9816115f7565b82525050565b6000602082019050611a0460008301846119e0565b92915050565b6000819050919050565b611a1d81611a0a565b82525050565b6000602082019050611a386000830184611a14565b92915050565b60008115159050919050565b611a5381611a3e565b82525050565b600081519050919050565b600082825260208201905092915050565b6000611a8082611a59565b611a8a8185611a64565b9350611a9a818560208601611676565b611aa3816116a9565b840191505092915050565b6000604082019050611ac36000830185611a4a565b8181036020830152611ad58184611a75565b90509392505050565b60008060408385031215611af557611af46115ed565b5b600083013567ffffffffffffffff811115611b1357611b126115f2565b5b611b1f858286016118c9565b925050602083013567ffffffffffffffff811115611b4057611b3f6115f2565b5b611b4c858286016118c9565b9150509250929050565b611b5f81611a0a565b8114611b6a57600080fd5b50565b600081359050611b7c81611b56565b92915050565b60008060008060008060c08789031215611b9f57611b9e6115ed565b5b6000611bad89828a01611618565b9650506020611bbe89828a01611b6d565b9550506040611bcf89828a01611b6d565b9450506060611be089828a01611b6d565b9350506080611bf189828a01611b6d565b92505060a0611c0289828a01611b6d565b9150509295509295509295565b611c1881611917565b82525050565b6000602082019050611c336000830184611c0f565b92915050565b7f4e487b7100000000000000000000000000000000000000000000000000000000600052602260045260246000fd5b60006002820490506001821680611c8057607f821691505b60208210811415611c9457611c93611c39565b5b50919050565b7f4e487b7100000000000000000000000000000000000000000000000000000000600052603260045260246000fd5b7f4e487b7100000000000000000000000000000000000000000000000000000000600052601160045260246000fd5b6000611d0382611a0a565b9150611d0e83611a0a565b925082821015611d2157611d20611cc9565b5b828203905092915050565b7f536f75726365206d75737420626520746865206f7261636c65206f662074686560008201527f2072657175657374000000000000000000000000000000000000000000000000602082015250565b6000611d88602883611665565b9150611d9382611d2c565b604082019050919050565b60006020820190508181036000830152611db781611d7b565b9050919050565b600060c082019050611dd360008301896119e0565b611de06020830188611a14565b611ded6040830187611a14565b611dfa6060830186611a14565b611e076080830185611a14565b611e1460a0830184611a14565b979650505050505050565b60008190508160005260206000209050919050565b60008154611e4181611c68565b611e4b8186611665565b94506001821660008114611e665760018114611e7857611eab565b60ff1983168652602086019350611eab565b611e8185611e1f565b60005b83811015611ea357815481890152600182019150602081019050611e84565b808801955050505b50505092915050565b6000608082019050611ec960008301876119e0565b8181036020830152611edb8186611e34565b90508181036040830152611eef8185611e34565b9050611efe6060830184611a14565b95945050505050565b6000611f1282611a0a565b9150611f1d83611a0a565b9250827fffffffffffffffffffffffffffffffffffffffffffffffffffffffffffffffff03821115611f5257611f51611cc9565b5b828201905092915050565b6000819050919050565b6000611f82611f7d611f78846118f7565b611f5d565b6118f7565b9050919050565b6000611f9482611f67565b9050919050565b6000611fa682611f89565b9050919050565b60008160601b9050919050565b6000611fc582611fad565b9050919050565b6000611fd782611fba565b9050919050565b611fef611fea82611f9b565b611fcc565b82525050565b6000819050919050565b61201061200b82611a0a565b611ff5565b82525050565b60006120228285611fde565b6014820191506120328284611fff565b6020820191508190509392505050565b60007fffffffff0000000000000000000000000000000000000000000000000000000082169050919050565b61207781612042565b82525050565b600061010082019050612093600083018b611c0f565b6120a0602083018a611a14565b6120ad60408301896119e0565b6120ba6060830188611c0f565b6120c7608083018761206e565b6120d460a0830186611a14565b6120e160c0830185611a14565b81810360e08301526120f38184611a75565b90509998505050505050505050565b60006060820190506121176000830186611c0f565b6121246020830185611a14565b81810360408301526121368184611a75565b9050949350505050565b61214981611a3e565b811461215457600080fd5b50565b60008151905061216681612140565b92915050565b600060208284031215612182576121816115ed565b5b600061219084828501612157565b91505092915050565b7f756e61626c6520746f207472616e73666572416e6443616c6c20746f206f726160008201527f636c650000000000000000000000000000000000000000000000000000000000602082015250565b60006121f5602383611665565b915061220082612199565b604082019050919050565b60006020820190508181036000830152612224816121e8565b9050919050565b7f4e487b7100000000000000000000000000000000000000000000000000000000600052601260045260246000fd5b600061226582611a0a565b915061227083611a0a565b9250826122805761227f61222b565b5b828206905092915050565b600061229682611a0a565b91506122a183611a0a565b9250817fffffffffffffffffffffffffffffffffffffffffffffffffffffffffffffffff04831182151516156122da576122d9611cc9565b5b828202905092915050565b60008160011c9050919050565b6000808291508390505b600185111561233c5780860481111561231857612317611cc9565b5b60018516156123275780820291505b8081029050612335856122e5565b94506122fc565b94509492505050565b6000826123555760019050612411565b816123635760009050612411565b81600181146123795760028114612383576123b2565b6001915050612411565b60ff84111561239557612394611cc9565b5b8360020a9150848211156123ac576123ab611cc9565b5b50612411565b5060208310610133831016604e8410600b84101617156123e75782820a9050838111156123e2576123e1611cc9565b5b612411565b6123f484848460016122f2565b9250905081840481111561240b5761240a611cc9565b5b81810290505b9392505050565b600061242382611a0a565b915061242e83611a0a565b925061245b7fffffffffffffffffffffffffffffffffffffffffffffffffffffffffffffffff8484612345565b90509291505056fea264697066735822122068d4fa51ca8e41d44ceaef3179d68c5a141dcd1acefd2bda1ef914f5aeef211364736f6c634300080a0033",
  "immutableReferences": {
    "2355": [
      {
        "length": 32,
        "start": 1660
      }
    ]
  },
  "source": "// SPDX-License-Identifier: MIT\npragma solidity ^0.8.7;\n\nimport \"@chainlink/contracts/src/v0.8/ChainlinkClient.sol\";\nimport \"@chainlink/contracts/src/v0.8/interfaces/KeeperCompatibleInterface.sol\";\n\ncontract PollutionDataContract is ChainlinkClient, KeeperCompatibleInterface {\n    using Chainlink for Chainlink.Request;\n\n    uint256 public counter;\n\n    address private oracle;\n    bytes32 private jobId;\n    uint256 private fee;\n\n    uint256 private immutable interval;\n    uint256 private lastTimeStamp;\n\n    string[] private latArray;\n    string[] private lonArray;\n    address[] private creatorArray;\n\n    mapping(bytes32 => address) public toAddresses;\n    mapping(bytes32 => string) public toLat;\n    mapping(bytes32 => string) public toLon;\n\n    constructor() {\n        setPublicChainlinkToken();\n        oracle = 0xd57018342B19Bc74dD6f5Fa8B73c934694b3aC10;\n        jobId = \"c7ef2e55f68e45b4b98219b8f2854189\";\n        fee = 0;\n        interval = 5 minutes;\n        lastTimeStamp = block.timestamp;\n    }\n\n    //function -> add to array and requestMultipleParameters\n    function addLocationDataAndFetchPollutionData(\n        string memory _lat,\n        string memory _lon\n    ) public {\n        latArray.push(_lat);\n        lonArray.push(_lon);\n        creatorArray.push(msg.sender);\n        requestMultipleParametersFromUser(_lat, _lon, msg.sender);\n    }\n\n    function checkUpkeep(\n        bytes calldata /* checkData */\n    )\n        external\n        override\n        returns (\n            bool upkeepNeeded,\n            bytes memory /* performData */\n        )\n    {\n        upkeepNeeded = (block.timestamp - lastTimeStamp) > interval;\n    }\n\n    function performUpkeep(\n        bytes calldata /* performData */\n    ) external override {\n        lastTimeStamp = block.timestamp;\n\n        string memory _lat = latArray[counter];\n        string memory _lon = lonArray[counter];\n\n        requestMultipleParameters(_lat, _lon);\n    }\n\n    function requestMultipleParameters(string memory _lat, string memory _lon)\n        public\n        returns (bytes32 requestId)\n    {\n        Chainlink.Request memory req = buildChainlinkRequest(\n            jobId,\n            address(this),\n            this.fulfillMultipleParameters.selector\n        );\n\n        req.add(\"lat\", _lat);\n        req.add(\"lon\", _lon);\n\n        // Sends the request\n        requestId = sendChainlinkRequestTo(oracle, req, fee);\n\n        toLat[requestId] = latArray[counter];\n        toLon[requestId] = lonArray[counter];\n        toAddresses[requestId] = creatorArray[counter];\n\n        if (counter >= creatorArray.length) {\n            counter = 0;\n        } else {\n            counter = counter + 1;\n        }\n    }\n\n    function requestMultipleParametersFromUser(\n        string memory _lat,\n        string memory _lon,\n        address _sender\n    ) public returns (bytes32 requestId) {\n        Chainlink.Request memory req = buildChainlinkRequest(\n            jobId,\n            address(this),\n            this.fulfillMultipleParameters.selector\n        );\n\n        req.add(\"lat\", _lat);\n        req.add(\"lon\", _lon);\n\n        // Sends the request\n        requestId = sendChainlinkRequestTo(oracle, req, fee);\n        toLat[requestId] = _lat;\n        toLon[requestId] = _lon;\n        toAddresses[requestId] = _sender;\n    }\n\n    event RequestMultipleFulfilled(\n        bytes32 requestId_,\n        uint256 aqi_,\n        uint256 no2_,\n        uint256 o3_,\n        uint256 pm10_,\n        uint256 pm2_5_,\n        address indexed requester_\n    );\n\n    event coordinatesAndAddress(\n        bytes32 requestId_,\n        string lat_,\n        string lon_,\n        uint256 timestamp_,\n        address indexed requester_\n    );\n\n    function fulfillMultipleParameters(\n        bytes32 requestId,\n        uint256 aqi_response,\n        uint256 no2_response,\n        uint256 o3_response,\n        uint256 pm10_response,\n        uint256 pm2_5_response\n    ) public recordChainlinkFulfillment(requestId) {\n        emit RequestMultipleFulfilled(\n            requestId,\n            aqi_response,\n            no2_response,\n            o3_response,\n            pm10_response,\n            pm2_5_response,\n            toAddresses[requestId]\n        );\n        emit coordinatesAndAddress(\n            requestId,\n            toLat[requestId],\n            toLon[requestId],\n            block.timestamp,\n            toAddresses[requestId]\n        );\n\n        //GTAX minted on some condition\n        //if(no2 > 200) { mint gtax}\n    }\n\n    // function withdrawLink() external {} - Implement a withdraw function to avoid locking your LINK in the contract\n}\n",
  "sourcePath": "/Users/np/Desktop/Chainlink hackathon/ChainlinkProject/net.zero/netZeroReactApp/contracts/PollutionDataContract.sol",
  "compiler": {
    "name": "solc",
    "version": "0.8.10+commit.fc410830.Emscripten.clang"
  },
  "schemaVersion": "3.4.3",
  "updatedAt": "2021-11-22T20:32:25.656Z",
  "networkType": "ethereum",
  "devdoc": {
    "kind": "dev",
    "methods": {},
    "version": 1
  },
  "userdoc": {
    "kind": "user",
    "methods": {},
    "version": 1
  }
}